{
	"pi_game_test.sol": {
		"TicTacToe": {
			"abi": [
				{
					"inputs": [
						{
							"internalType": "uint256",
							"name": "_gameFee",
							"type": "uint256"
						}
					],
					"stateMutability": "nonpayable",
					"type": "constructor"
				},
				{
					"inputs": [
						{
							"internalType": "uint8",
							"name": "position",
							"type": "uint8"
						}
					],
					"name": "makeMove",
					"outputs": [],
					"stateMutability": "nonpayable",
					"type": "function"
				},
				{
					"inputs": [],
					"name": "registerPlayer",
					"outputs": [],
					"stateMutability": "payable",
					"type": "function"
				}
			],
			"devdoc": {
				"kind": "dev",
				"methods": {},
				"version": 1
			},
			"evm": {
				"assembly": "    /* \"pi_game_test.sol\":57:1591  contract TicTacToe {... */\n  mstore(0x40, 0x80)\n    /* \"pi_game_test.sol\":291:356  constructor(uint256 _gameFee) {... */\n  callvalue\n  dup1\n  iszero\n  tag_1\n  jumpi\n  0x00\n  dup1\n  revert\ntag_1:\n  pop\n  mload(0x40)\n  sub(codesize, bytecodeSize)\n  dup1\n  bytecodeSize\n  dup4\n  codecopy\n  dup2\n  dup2\n  add\n  0x40\n  mstore\n  dup2\n  add\n  swap1\n  tag_2\n  swap2\n  swap1\n  tag_3\n  jump\t// in\ntag_2:\n    /* \"pi_game_test.sol\":341:349  _gameFee */\n  dup1\n    /* \"pi_game_test.sol\":331:338  gameFee */\n  0x04\n    /* \"pi_game_test.sol\":331:349  gameFee = _gameFee */\n  dup2\n  swap1\n  sstore\n  pop\n    /* \"pi_game_test.sol\":291:356  constructor(uint256 _gameFee) {... */\n  pop\n    /* \"pi_game_test.sol\":57:1591  contract TicTacToe {... */\n  jump(tag_6)\n    /* \"#utility.yul\":88:205   */\ntag_8:\n    /* \"#utility.yul\":197:198   */\n  0x00\n    /* \"#utility.yul\":194:195   */\n  dup1\n    /* \"#utility.yul\":187:199   */\n  revert\n    /* \"#utility.yul\":334:411   */\ntag_10:\n    /* \"#utility.yul\":371:378   */\n  0x00\n    /* \"#utility.yul\":400:405   */\n  dup2\n    /* \"#utility.yul\":389:405   */\n  swap1\n  pop\n    /* \"#utility.yul\":334:411   */\n  swap2\n  swap1\n  pop\n  jump\t// out\n    /* \"#utility.yul\":417:539   */\ntag_11:\n    /* \"#utility.yul\":490:514   */\n  tag_19\n    /* \"#utility.yul\":508:513   */\n  dup2\n    /* \"#utility.yul\":490:514   */\n  tag_10\n  jump\t// in\ntag_19:\n    /* \"#utility.yul\":483:488   */\n  dup2\n    /* \"#utility.yul\":480:515   */\n  eq\n    /* \"#utility.yul\":470:533   */\n  tag_20\n  jumpi\n    /* \"#utility.yul\":529:530   */\n  0x00\n    /* \"#utility.yul\":526:527   */\n  dup1\n    /* \"#utility.yul\":519:531   */\n  revert\n    /* \"#utility.yul\":470:533   */\ntag_20:\n    /* \"#utility.yul\":417:539   */\n  pop\n  jump\t// out\n    /* \"#utility.yul\":545:688   */\ntag_12:\n    /* \"#utility.yul\":602:607   */\n  0x00\n    /* \"#utility.yul\":633:639   */\n  dup2\n    /* \"#utility.yul\":627:640   */\n  mload\n    /* \"#utility.yul\":618:640   */\n  swap1\n  pop\n    /* \"#utility.yul\":649:682   */\n  tag_22\n    /* \"#utility.yul\":676:681   */\n  dup2\n    /* \"#utility.yul\":649:682   */\n  tag_11\n  jump\t// in\ntag_22:\n    /* \"#utility.yul\":545:688   */\n  swap3\n  swap2\n  pop\n  pop\n  jump\t// out\n    /* \"#utility.yul\":694:1045   */\ntag_3:\n    /* \"#utility.yul\":764:770   */\n  0x00\n    /* \"#utility.yul\":813:815   */\n  0x20\n    /* \"#utility.yul\":801:810   */\n  dup3\n    /* \"#utility.yul\":792:799   */\n  dup5\n    /* \"#utility.yul\":788:811   */\n  sub\n    /* \"#utility.yul\":784:816   */\n  slt\n    /* \"#utility.yul\":781:900   */\n  iszero\n  tag_24\n  jumpi\n    /* \"#utility.yul\":819:898   */\n  tag_25\n  tag_8\n  jump\t// in\ntag_25:\n    /* \"#utility.yul\":781:900   */\ntag_24:\n    /* \"#utility.yul\":939:940   */\n  0x00\n    /* \"#utility.yul\":964:1028   */\n  tag_26\n    /* \"#utility.yul\":1020:1027   */\n  dup5\n    /* \"#utility.yul\":1011:1017   */\n  dup3\n    /* \"#utility.yul\":1000:1009   */\n  dup6\n    /* \"#utility.yul\":996:1018   */\n  add\n    /* \"#utility.yul\":964:1028   */\n  tag_12\n  jump\t// in\ntag_26:\n    /* \"#utility.yul\":954:1028   */\n  swap2\n  pop\n    /* \"#utility.yul\":910:1038   */\n  pop\n    /* \"#utility.yul\":694:1045   */\n  swap3\n  swap2\n  pop\n  pop\n  jump\t// out\n    /* \"pi_game_test.sol\":57:1591  contract TicTacToe {... */\ntag_6:\n  dataSize(sub_0)\n  dup1\n  dataOffset(sub_0)\n  0x00\n  codecopy\n  0x00\n  return\nstop\n\nsub_0: assembly {\n        /* \"pi_game_test.sol\":57:1591  contract TicTacToe {... */\n      mstore(0x40, 0x80)\n      jumpi(tag_1, lt(calldatasize, 0x04))\n      shr(0xe0, calldataload(0x00))\n      dup1\n      0x5c07a4b0\n      eq\n      tag_2\n      jumpi\n      dup1\n      0x650271d2\n      eq\n      tag_3\n      jumpi\n    tag_1:\n      0x00\n      dup1\n      revert\n        /* \"pi_game_test.sol\":399:771  function registerPlayer() external payable {... */\n    tag_2:\n      tag_4\n      tag_5\n      jump\t// in\n    tag_4:\n      stop\n        /* \"pi_game_test.sol\":808:1362  function makeMove(uint8 position) external {... */\n    tag_3:\n      callvalue\n      dup1\n      iszero\n      tag_6\n      jumpi\n      0x00\n      dup1\n      revert\n    tag_6:\n      pop\n      tag_7\n      0x04\n      dup1\n      calldatasize\n      sub\n      dup2\n      add\n      swap1\n      tag_8\n      swap2\n      swap1\n      tag_9\n      jump\t// in\n    tag_8:\n      tag_10\n      jump\t// in\n    tag_7:\n      stop\n        /* \"pi_game_test.sol\":399:771  function registerPlayer() external payable {... */\n    tag_5:\n        /* \"pi_game_test.sol\":461:470  gameEnded */\n      0x03\n      0x01\n      swap1\n      sload\n      swap1\n      0x0100\n      exp\n      swap1\n      div\n      0xff\n      and\n        /* \"pi_game_test.sol\":460:470  !gameEnded */\n      iszero\n        /* \"pi_game_test.sol\":452:497  require(!gameEnded, \"Game has already ended\") */\n      tag_12\n      jumpi\n      mload(0x40)\n      0x08c379a000000000000000000000000000000000000000000000000000000000\n      dup2\n      mstore\n      0x04\n      add\n      tag_13\n      swap1\n      tag_14\n      jump\t// in\n    tag_13:\n      mload(0x40)\n      dup1\n      swap2\n      sub\n      swap1\n      revert\n    tag_12:\n        /* \"pi_game_test.sol\":528:535  gameFee */\n      sload(0x04)\n        /* \"pi_game_test.sol\":515:524  msg.value */\n      callvalue\n        /* \"pi_game_test.sol\":515:535  msg.value == gameFee */\n      eq\n        /* \"pi_game_test.sol\":507:553  require(msg.value == gameFee, \"Incorrect fee\") */\n      tag_15\n      jumpi\n      mload(0x40)\n      0x08c379a000000000000000000000000000000000000000000000000000000000\n      dup2\n      mstore\n      0x04\n      add\n      tag_16\n      swap1\n      tag_17\n      jump\t// in\n    tag_16:\n      mload(0x40)\n      dup1\n      swap2\n      sub\n      swap1\n      revert\n    tag_15:\n        /* \"pi_game_test.sol\":587:588  0 */\n      0x00\n        /* \"pi_game_test.sol\":568:589  player1 == address(0) */\n      0xffffffffffffffffffffffffffffffffffffffff\n      and\n        /* \"pi_game_test.sol\":568:575  player1 */\n      0x00\n      dup1\n      sload\n      swap1\n      0x0100\n      exp\n      swap1\n      div\n      0xffffffffffffffffffffffffffffffffffffffff\n      and\n        /* \"pi_game_test.sol\":568:589  player1 == address(0) */\n      0xffffffffffffffffffffffffffffffffffffffff\n      and\n      sub\n        /* \"pi_game_test.sol\":564:765  if (player1 == address(0)) {... */\n      tag_18\n      jumpi\n        /* \"pi_game_test.sol\":623:633  msg.sender */\n      caller\n        /* \"pi_game_test.sol\":605:612  player1 */\n      0x00\n      dup1\n        /* \"pi_game_test.sol\":605:634  player1 = payable(msg.sender) */\n      0x0100\n      exp\n      dup2\n      sload\n      dup2\n      0xffffffffffffffffffffffffffffffffffffffff\n      mul\n      not\n      and\n      swap1\n      dup4\n      0xffffffffffffffffffffffffffffffffffffffff\n      and\n      mul\n      or\n      swap1\n      sstore\n      pop\n        /* \"pi_game_test.sol\":564:765  if (player1 == address(0)) {... */\n      jump(tag_19)\n    tag_18:\n        /* \"pi_game_test.sol\":692:693  0 */\n      0x00\n        /* \"pi_game_test.sol\":673:694  player2 == address(0) */\n      0xffffffffffffffffffffffffffffffffffffffff\n      and\n        /* \"pi_game_test.sol\":673:680  player2 */\n      0x01\n      0x00\n      swap1\n      sload\n      swap1\n      0x0100\n      exp\n      swap1\n      div\n      0xffffffffffffffffffffffffffffffffffffffff\n      and\n        /* \"pi_game_test.sol\":673:694  player2 == address(0) */\n      0xffffffffffffffffffffffffffffffffffffffff\n      and\n      eq\n        /* \"pi_game_test.sol\":665:711  require(player2 == address(0), \"Game is full\") */\n      tag_20\n      jumpi\n      mload(0x40)\n      0x08c379a000000000000000000000000000000000000000000000000000000000\n      dup2\n      mstore\n      0x04\n      add\n      tag_21\n      swap1\n      tag_22\n      jump\t// in\n    tag_21:\n      mload(0x40)\n      dup1\n      swap2\n      sub\n      swap1\n      revert\n    tag_20:\n        /* \"pi_game_test.sol\":743:753  msg.sender */\n      caller\n        /* \"pi_game_test.sol\":725:732  player2 */\n      0x01\n      0x00\n        /* \"pi_game_test.sol\":725:754  player2 = payable(msg.sender) */\n      0x0100\n      exp\n      dup2\n      sload\n      dup2\n      0xffffffffffffffffffffffffffffffffffffffff\n      mul\n      not\n      and\n      swap1\n      dup4\n      0xffffffffffffffffffffffffffffffffffffffff\n      and\n      mul\n      or\n      swap1\n      sstore\n      pop\n        /* \"pi_game_test.sol\":564:765  if (player1 == address(0)) {... */\n    tag_19:\n        /* \"pi_game_test.sol\":399:771  function registerPlayer() external payable {... */\n      jump\t// out\n        /* \"pi_game_test.sol\":808:1362  function makeMove(uint8 position) external {... */\n    tag_10:\n        /* \"pi_game_test.sol\":880:890  msg.sender */\n      caller\n        /* \"pi_game_test.sol\":869:890  player1 == msg.sender */\n      0xffffffffffffffffffffffffffffffffffffffff\n      and\n        /* \"pi_game_test.sol\":869:876  player1 */\n      0x00\n      dup1\n      sload\n      swap1\n      0x0100\n      exp\n      swap1\n      div\n      0xffffffffffffffffffffffffffffffffffffffff\n      and\n        /* \"pi_game_test.sol\":869:890  player1 == msg.sender */\n      0xffffffffffffffffffffffffffffffffffffffff\n      and\n      eq\n        /* \"pi_game_test.sol\":869:915  player1 == msg.sender || player2 == msg.sender */\n      dup1\n      tag_24\n      jumpi\n      pop\n        /* \"pi_game_test.sol\":905:915  msg.sender */\n      caller\n        /* \"pi_game_test.sol\":894:915  player2 == msg.sender */\n      0xffffffffffffffffffffffffffffffffffffffff\n      and\n        /* \"pi_game_test.sol\":894:901  player2 */\n      0x01\n      0x00\n      swap1\n      sload\n      swap1\n      0x0100\n      exp\n      swap1\n      div\n      0xffffffffffffffffffffffffffffffffffffffff\n      and\n        /* \"pi_game_test.sol\":894:915  player2 == msg.sender */\n      0xffffffffffffffffffffffffffffffffffffffff\n      and\n      eq\n        /* \"pi_game_test.sol\":869:915  player1 == msg.sender || player2 == msg.sender */\n    tag_24:\n        /* \"pi_game_test.sol\":861:933  require(player1 == msg.sender || player2 == msg.sender, \"Not your turn\") */\n      tag_25\n      jumpi\n      mload(0x40)\n      0x08c379a000000000000000000000000000000000000000000000000000000000\n      dup2\n      mstore\n      0x04\n      add\n      tag_26\n      swap1\n      tag_27\n      jump\t// in\n    tag_26:\n      mload(0x40)\n      dup1\n      swap2\n      sub\n      swap1\n      revert\n    tag_25:\n        /* \"pi_game_test.sol\":970:971  0 */\n      0x00\n        /* \"pi_game_test.sol\":951:956  board */\n      0x02\n        /* \"pi_game_test.sol\":957:965  position */\n      dup3\n        /* \"pi_game_test.sol\":951:966  board[position] */\n      0xff\n      and\n      0x09\n      dup2\n      lt\n      tag_28\n      jumpi\n      tag_29\n      tag_30\n      jump\t// in\n    tag_29:\n    tag_28:\n      0x20\n      swap2\n      dup3\n      dup3\n      div\n      add\n      swap2\n      swap1\n      mod\n      swap1\n      sload\n      swap1\n      0x0100\n      exp\n      swap1\n      div\n      0xff\n      and\n        /* \"pi_game_test.sol\":951:971  board[position] == 0 */\n      0xff\n      and\n      eq\n        /* \"pi_game_test.sol\":943:998  require(board[position] == 0, \"Position already taken\") */\n      tag_32\n      jumpi\n      mload(0x40)\n      0x08c379a000000000000000000000000000000000000000000000000000000000\n      dup2\n      mstore\n      0x04\n      add\n      tag_33\n      swap1\n      tag_34\n      jump\t// in\n    tag_33:\n      mload(0x40)\n      dup1\n      swap2\n      sub\n      swap1\n      revert\n    tag_32:\n        /* \"pi_game_test.sol\":1027:1040  currentPlayer */\n      0x03\n      0x00\n      swap1\n      sload\n      swap1\n      0x0100\n      exp\n      swap1\n      div\n      0xff\n      and\n        /* \"pi_game_test.sol\":1009:1014  board */\n      0x02\n        /* \"pi_game_test.sol\":1015:1023  position */\n      dup3\n        /* \"pi_game_test.sol\":1009:1024  board[position] */\n      0xff\n      and\n      0x09\n      dup2\n      lt\n      tag_35\n      jumpi\n      tag_36\n      tag_30\n      jump\t// in\n    tag_36:\n    tag_35:\n      0x20\n      swap2\n      dup3\n      dup3\n      div\n      add\n      swap2\n      swap1\n      mod\n        /* \"pi_game_test.sol\":1009:1040  board[position] = currentPlayer */\n      0x0100\n      exp\n      dup2\n      sload\n      dup2\n      0xff\n      mul\n      not\n      and\n      swap1\n      dup4\n      0xff\n      and\n      mul\n      or\n      swap1\n      sstore\n      pop\n        /* \"pi_game_test.sol\":1083:1084  1 */\n      0x01\n        /* \"pi_game_test.sol\":1066:1079  currentPlayer */\n      0x03\n      0x00\n      swap1\n      sload\n      swap1\n      0x0100\n      exp\n      swap1\n      div\n      0xff\n      and\n        /* \"pi_game_test.sol\":1066:1084  currentPlayer == 1 */\n      0xff\n      and\n      eq\n        /* \"pi_game_test.sol\":1066:1092  currentPlayer == 1 ? 2 : 1 */\n      tag_38\n      jumpi\n        /* \"pi_game_test.sol\":1091:1092  1 */\n      0x01\n        /* \"pi_game_test.sol\":1066:1092  currentPlayer == 1 ? 2 : 1 */\n      jump(tag_39)\n    tag_38:\n        /* \"pi_game_test.sol\":1087:1088  2 */\n      0x02\n        /* \"pi_game_test.sol\":1066:1092  currentPlayer == 1 ? 2 : 1 */\n    tag_39:\n        /* \"pi_game_test.sol\":1050:1063  currentPlayer */\n      0x03\n      0x00\n        /* \"pi_game_test.sol\":1050:1092  currentPlayer = currentPlayer == 1 ? 2 : 1 */\n      0x0100\n      exp\n      dup2\n      sload\n      dup2\n      0xff\n      mul\n      not\n      and\n      swap1\n      dup4\n      0xff\n      and\n      mul\n      or\n      swap1\n      sstore\n      pop\n        /* \"pi_game_test.sol\":1140:1163  isWinner(currentPlayer) */\n      tag_40\n        /* \"pi_game_test.sol\":1149:1162  currentPlayer */\n      0x03\n      0x00\n      swap1\n      sload\n      swap1\n      0x0100\n      exp\n      swap1\n      div\n      0xff\n      and\n        /* \"pi_game_test.sol\":1140:1148  isWinner */\n      tag_41\n        /* \"pi_game_test.sol\":1140:1163  isWinner(currentPlayer) */\n      jump\t// in\n    tag_40:\n        /* \"pi_game_test.sol\":1136:1356  if (isWinner(currentPlayer)) {... */\n      iszero\n      tag_42\n      jumpi\n        /* \"pi_game_test.sol\":1191:1195  true */\n      0x01\n        /* \"pi_game_test.sol\":1179:1188  gameEnded */\n      0x03\n      0x01\n        /* \"pi_game_test.sol\":1179:1195  gameEnded = true */\n      0x0100\n      exp\n      dup2\n      sload\n      dup2\n      0xff\n      mul\n      not\n      and\n      swap1\n      dup4\n      iszero\n      iszero\n      mul\n      or\n      swap1\n      sstore\n      pop\n        /* \"pi_game_test.sol\":1136:1356  if (isWinner(currentPlayer)) {... */\n      jump(tag_43)\n    tag_42:\n        /* \"pi_game_test.sol\":1264:1277  isBoardFull() */\n      tag_44\n        /* \"pi_game_test.sol\":1264:1275  isBoardFull */\n      tag_45\n        /* \"pi_game_test.sol\":1264:1277  isBoardFull() */\n      jump\t// in\n    tag_44:\n        /* \"pi_game_test.sol\":1260:1356  if (isBoardFull()) {... */\n      iszero\n      tag_46\n      jumpi\n        /* \"pi_game_test.sol\":1305:1309  true */\n      0x01\n        /* \"pi_game_test.sol\":1293:1302  gameEnded */\n      0x03\n      0x01\n        /* \"pi_game_test.sol\":1293:1309  gameEnded = true */\n      0x0100\n      exp\n      dup2\n      sload\n      dup2\n      0xff\n      mul\n      not\n      and\n      swap1\n      dup4\n      iszero\n      iszero\n      mul\n      or\n      swap1\n      sstore\n      pop\n        /* \"pi_game_test.sol\":1260:1356  if (isBoardFull()) {... */\n    tag_46:\n        /* \"pi_game_test.sol\":1136:1356  if (isWinner(currentPlayer)) {... */\n    tag_43:\n        /* \"pi_game_test.sol\":808:1362  function makeMove(uint8 position) external {... */\n      pop\n      jump\t// out\n        /* \"pi_game_test.sol\":1428:1510  function isWinner(uint8 player) private view returns (bool) {... */\n    tag_41:\n        /* \"pi_game_test.sol\":1482:1486  bool */\n      0x00\n        /* \"pi_game_test.sol\":1428:1510  function isWinner(uint8 player) private view returns (bool) {... */\n      swap2\n      swap1\n      pop\n      jump\t// out\n        /* \"pi_game_test.sol\":1516:1589  function isBoardFull() private view returns (bool) {... */\n    tag_45:\n        /* \"pi_game_test.sol\":1561:1565  bool */\n      0x00\n        /* \"pi_game_test.sol\":1516:1589  function isBoardFull() private view returns (bool) {... */\n      swap1\n      jump\t// out\n        /* \"#utility.yul\":88:205   */\n    tag_50:\n        /* \"#utility.yul\":197:198   */\n      0x00\n        /* \"#utility.yul\":194:195   */\n      dup1\n        /* \"#utility.yul\":187:199   */\n      revert\n        /* \"#utility.yul\":334:420   */\n    tag_52:\n        /* \"#utility.yul\":369:376   */\n      0x00\n        /* \"#utility.yul\":409:413   */\n      0xff\n        /* \"#utility.yul\":402:407   */\n      dup3\n        /* \"#utility.yul\":398:414   */\n      and\n        /* \"#utility.yul\":387:414   */\n      swap1\n      pop\n        /* \"#utility.yul\":334:420   */\n      swap2\n      swap1\n      pop\n      jump\t// out\n        /* \"#utility.yul\":426:544   */\n    tag_53:\n        /* \"#utility.yul\":497:519   */\n      tag_72\n        /* \"#utility.yul\":513:518   */\n      dup2\n        /* \"#utility.yul\":497:519   */\n      tag_52\n      jump\t// in\n    tag_72:\n        /* \"#utility.yul\":490:495   */\n      dup2\n        /* \"#utility.yul\":487:520   */\n      eq\n        /* \"#utility.yul\":477:538   */\n      tag_73\n      jumpi\n        /* \"#utility.yul\":534:535   */\n      0x00\n        /* \"#utility.yul\":531:532   */\n      dup1\n        /* \"#utility.yul\":524:536   */\n      revert\n        /* \"#utility.yul\":477:538   */\n    tag_73:\n        /* \"#utility.yul\":426:544   */\n      pop\n      jump\t// out\n        /* \"#utility.yul\":550:685   */\n    tag_54:\n        /* \"#utility.yul\":594:599   */\n      0x00\n        /* \"#utility.yul\":632:638   */\n      dup2\n        /* \"#utility.yul\":619:639   */\n      calldataload\n        /* \"#utility.yul\":610:639   */\n      swap1\n      pop\n        /* \"#utility.yul\":648:679   */\n      tag_75\n        /* \"#utility.yul\":673:678   */\n      dup2\n        /* \"#utility.yul\":648:679   */\n      tag_53\n      jump\t// in\n    tag_75:\n        /* \"#utility.yul\":550:685   */\n      swap3\n      swap2\n      pop\n      pop\n      jump\t// out\n        /* \"#utility.yul\":691:1016   */\n    tag_9:\n        /* \"#utility.yul\":748:754   */\n      0x00\n        /* \"#utility.yul\":797:799   */\n      0x20\n        /* \"#utility.yul\":785:794   */\n      dup3\n        /* \"#utility.yul\":776:783   */\n      dup5\n        /* \"#utility.yul\":772:795   */\n      sub\n        /* \"#utility.yul\":768:800   */\n      slt\n        /* \"#utility.yul\":765:884   */\n      iszero\n      tag_77\n      jumpi\n        /* \"#utility.yul\":803:882   */\n      tag_78\n      tag_50\n      jump\t// in\n    tag_78:\n        /* \"#utility.yul\":765:884   */\n    tag_77:\n        /* \"#utility.yul\":923:924   */\n      0x00\n        /* \"#utility.yul\":948:999   */\n      tag_79\n        /* \"#utility.yul\":991:998   */\n      dup5\n        /* \"#utility.yul\":982:988   */\n      dup3\n        /* \"#utility.yul\":971:980   */\n      dup6\n        /* \"#utility.yul\":967:989   */\n      add\n        /* \"#utility.yul\":948:999   */\n      tag_54\n      jump\t// in\n    tag_79:\n        /* \"#utility.yul\":938:999   */\n      swap2\n      pop\n        /* \"#utility.yul\":894:1009   */\n      pop\n        /* \"#utility.yul\":691:1016   */\n      swap3\n      swap2\n      pop\n      pop\n      jump\t// out\n        /* \"#utility.yul\":1022:1191   */\n    tag_55:\n        /* \"#utility.yul\":1106:1117   */\n      0x00\n        /* \"#utility.yul\":1140:1146   */\n      dup3\n        /* \"#utility.yul\":1135:1138   */\n      dup3\n        /* \"#utility.yul\":1128:1147   */\n      mstore\n        /* \"#utility.yul\":1180:1184   */\n      0x20\n        /* \"#utility.yul\":1175:1178   */\n      dup3\n        /* \"#utility.yul\":1171:1185   */\n      add\n        /* \"#utility.yul\":1156:1185   */\n      swap1\n      pop\n        /* \"#utility.yul\":1022:1191   */\n      swap3\n      swap2\n      pop\n      pop\n      jump\t// out\n        /* \"#utility.yul\":1197:1369   */\n    tag_56:\n        /* \"#utility.yul\":1337:1361   */\n      0x47616d652068617320616c726561647920656e64656400000000000000000000\n        /* \"#utility.yul\":1333:1334   */\n      0x00\n        /* \"#utility.yul\":1325:1331   */\n      dup3\n        /* \"#utility.yul\":1321:1335   */\n      add\n        /* \"#utility.yul\":1314:1362   */\n      mstore\n        /* \"#utility.yul\":1197:1369   */\n      pop\n      jump\t// out\n        /* \"#utility.yul\":1375:1741   */\n    tag_57:\n        /* \"#utility.yul\":1517:1520   */\n      0x00\n        /* \"#utility.yul\":1538:1605   */\n      tag_83\n        /* \"#utility.yul\":1602:1604   */\n      0x16\n        /* \"#utility.yul\":1597:1600   */\n      dup4\n        /* \"#utility.yul\":1538:1605   */\n      tag_55\n      jump\t// in\n    tag_83:\n        /* \"#utility.yul\":1531:1605   */\n      swap2\n      pop\n        /* \"#utility.yul\":1614:1707   */\n      tag_84\n        /* \"#utility.yul\":1703:1706   */\n      dup3\n        /* \"#utility.yul\":1614:1707   */\n      tag_56\n      jump\t// in\n    tag_84:\n        /* \"#utility.yul\":1732:1734   */\n      0x20\n        /* \"#utility.yul\":1727:1730   */\n      dup3\n        /* \"#utility.yul\":1723:1735   */\n      add\n        /* \"#utility.yul\":1716:1735   */\n      swap1\n      pop\n        /* \"#utility.yul\":1375:1741   */\n      swap2\n      swap1\n      pop\n      jump\t// out\n        /* \"#utility.yul\":1747:2166   */\n    tag_14:\n        /* \"#utility.yul\":1913:1917   */\n      0x00\n        /* \"#utility.yul\":1951:1953   */\n      0x20\n        /* \"#utility.yul\":1940:1949   */\n      dup3\n        /* \"#utility.yul\":1936:1954   */\n      add\n        /* \"#utility.yul\":1928:1954   */\n      swap1\n      pop\n        /* \"#utility.yul\":2000:2009   */\n      dup2\n        /* \"#utility.yul\":1994:1998   */\n      dup2\n        /* \"#utility.yul\":1990:2010   */\n      sub\n        /* \"#utility.yul\":1986:1987   */\n      0x00\n        /* \"#utility.yul\":1975:1984   */\n      dup4\n        /* \"#utility.yul\":1971:1988   */\n      add\n        /* \"#utility.yul\":1964:2011   */\n      mstore\n        /* \"#utility.yul\":2028:2159   */\n      tag_86\n        /* \"#utility.yul\":2154:2158   */\n      dup2\n        /* \"#utility.yul\":2028:2159   */\n      tag_57\n      jump\t// in\n    tag_86:\n        /* \"#utility.yul\":2020:2159   */\n      swap1\n      pop\n        /* \"#utility.yul\":1747:2166   */\n      swap2\n      swap1\n      pop\n      jump\t// out\n        /* \"#utility.yul\":2172:2335   */\n    tag_58:\n        /* \"#utility.yul\":2312:2327   */\n      0x496e636f72726563742066656500000000000000000000000000000000000000\n        /* \"#utility.yul\":2308:2309   */\n      0x00\n        /* \"#utility.yul\":2300:2306   */\n      dup3\n        /* \"#utility.yul\":2296:2310   */\n      add\n        /* \"#utility.yul\":2289:2328   */\n      mstore\n        /* \"#utility.yul\":2172:2335   */\n      pop\n      jump\t// out\n        /* \"#utility.yul\":2341:2707   */\n    tag_59:\n        /* \"#utility.yul\":2483:2486   */\n      0x00\n        /* \"#utility.yul\":2504:2571   */\n      tag_89\n        /* \"#utility.yul\":2568:2570   */\n      0x0d\n        /* \"#utility.yul\":2563:2566   */\n      dup4\n        /* \"#utility.yul\":2504:2571   */\n      tag_55\n      jump\t// in\n    tag_89:\n        /* \"#utility.yul\":2497:2571   */\n      swap2\n      pop\n        /* \"#utility.yul\":2580:2673   */\n      tag_90\n        /* \"#utility.yul\":2669:2672   */\n      dup3\n        /* \"#utility.yul\":2580:2673   */\n      tag_58\n      jump\t// in\n    tag_90:\n        /* \"#utility.yul\":2698:2700   */\n      0x20\n        /* \"#utility.yul\":2693:2696   */\n      dup3\n        /* \"#utility.yul\":2689:2701   */\n      add\n        /* \"#utility.yul\":2682:2701   */\n      swap1\n      pop\n        /* \"#utility.yul\":2341:2707   */\n      swap2\n      swap1\n      pop\n      jump\t// out\n        /* \"#utility.yul\":2713:3132   */\n    tag_17:\n        /* \"#utility.yul\":2879:2883   */\n      0x00\n        /* \"#utility.yul\":2917:2919   */\n      0x20\n        /* \"#utility.yul\":2906:2915   */\n      dup3\n        /* \"#utility.yul\":2902:2920   */\n      add\n        /* \"#utility.yul\":2894:2920   */\n      swap1\n      pop\n        /* \"#utility.yul\":2966:2975   */\n      dup2\n        /* \"#utility.yul\":2960:2964   */\n      dup2\n        /* \"#utility.yul\":2956:2976   */\n      sub\n        /* \"#utility.yul\":2952:2953   */\n      0x00\n        /* \"#utility.yul\":2941:2950   */\n      dup4\n        /* \"#utility.yul\":2937:2954   */\n      add\n        /* \"#utility.yul\":2930:2977   */\n      mstore\n        /* \"#utility.yul\":2994:3125   */\n      tag_92\n        /* \"#utility.yul\":3120:3124   */\n      dup2\n        /* \"#utility.yul\":2994:3125   */\n      tag_59\n      jump\t// in\n    tag_92:\n        /* \"#utility.yul\":2986:3125   */\n      swap1\n      pop\n        /* \"#utility.yul\":2713:3132   */\n      swap2\n      swap1\n      pop\n      jump\t// out\n        /* \"#utility.yul\":3138:3300   */\n    tag_60:\n        /* \"#utility.yul\":3278:3292   */\n      0x47616d652069732066756c6c0000000000000000000000000000000000000000\n        /* \"#utility.yul\":3274:3275   */\n      0x00\n        /* \"#utility.yul\":3266:3272   */\n      dup3\n        /* \"#utility.yul\":3262:3276   */\n      add\n        /* \"#utility.yul\":3255:3293   */\n      mstore\n        /* \"#utility.yul\":3138:3300   */\n      pop\n      jump\t// out\n        /* \"#utility.yul\":3306:3672   */\n    tag_61:\n        /* \"#utility.yul\":3448:3451   */\n      0x00\n        /* \"#utility.yul\":3469:3536   */\n      tag_95\n        /* \"#utility.yul\":3533:3535   */\n      0x0c\n        /* \"#utility.yul\":3528:3531   */\n      dup4\n        /* \"#utility.yul\":3469:3536   */\n      tag_55\n      jump\t// in\n    tag_95:\n        /* \"#utility.yul\":3462:3536   */\n      swap2\n      pop\n        /* \"#utility.yul\":3545:3638   */\n      tag_96\n        /* \"#utility.yul\":3634:3637   */\n      dup3\n        /* \"#utility.yul\":3545:3638   */\n      tag_60\n      jump\t// in\n    tag_96:\n        /* \"#utility.yul\":3663:3665   */\n      0x20\n        /* \"#utility.yul\":3658:3661   */\n      dup3\n        /* \"#utility.yul\":3654:3666   */\n      add\n        /* \"#utility.yul\":3647:3666   */\n      swap1\n      pop\n        /* \"#utility.yul\":3306:3672   */\n      swap2\n      swap1\n      pop\n      jump\t// out\n        /* \"#utility.yul\":3678:4097   */\n    tag_22:\n        /* \"#utility.yul\":3844:3848   */\n      0x00\n        /* \"#utility.yul\":3882:3884   */\n      0x20\n        /* \"#utility.yul\":3871:3880   */\n      dup3\n        /* \"#utility.yul\":3867:3885   */\n      add\n        /* \"#utility.yul\":3859:3885   */\n      swap1\n      pop\n        /* \"#utility.yul\":3931:3940   */\n      dup2\n        /* \"#utility.yul\":3925:3929   */\n      dup2\n        /* \"#utility.yul\":3921:3941   */\n      sub\n        /* \"#utility.yul\":3917:3918   */\n      0x00\n        /* \"#utility.yul\":3906:3915   */\n      dup4\n        /* \"#utility.yul\":3902:3919   */\n      add\n        /* \"#utility.yul\":3895:3942   */\n      mstore\n        /* \"#utility.yul\":3959:4090   */\n      tag_98\n        /* \"#utility.yul\":4085:4089   */\n      dup2\n        /* \"#utility.yul\":3959:4090   */\n      tag_61\n      jump\t// in\n    tag_98:\n        /* \"#utility.yul\":3951:4090   */\n      swap1\n      pop\n        /* \"#utility.yul\":3678:4097   */\n      swap2\n      swap1\n      pop\n      jump\t// out\n        /* \"#utility.yul\":4103:4266   */\n    tag_62:\n        /* \"#utility.yul\":4243:4258   */\n      0x4e6f7420796f7572207475726e00000000000000000000000000000000000000\n        /* \"#utility.yul\":4239:4240   */\n      0x00\n        /* \"#utility.yul\":4231:4237   */\n      dup3\n        /* \"#utility.yul\":4227:4241   */\n      add\n        /* \"#utility.yul\":4220:4259   */\n      mstore\n        /* \"#utility.yul\":4103:4266   */\n      pop\n      jump\t// out\n        /* \"#utility.yul\":4272:4638   */\n    tag_63:\n        /* \"#utility.yul\":4414:4417   */\n      0x00\n        /* \"#utility.yul\":4435:4502   */\n      tag_101\n        /* \"#utility.yul\":4499:4501   */\n      0x0d\n        /* \"#utility.yul\":4494:4497   */\n      dup4\n        /* \"#utility.yul\":4435:4502   */\n      tag_55\n      jump\t// in\n    tag_101:\n        /* \"#utility.yul\":4428:4502   */\n      swap2\n      pop\n        /* \"#utility.yul\":4511:4604   */\n      tag_102\n        /* \"#utility.yul\":4600:4603   */\n      dup3\n        /* \"#utility.yul\":4511:4604   */\n      tag_62\n      jump\t// in\n    tag_102:\n        /* \"#utility.yul\":4629:4631   */\n      0x20\n        /* \"#utility.yul\":4624:4627   */\n      dup3\n        /* \"#utility.yul\":4620:4632   */\n      add\n        /* \"#utility.yul\":4613:4632   */\n      swap1\n      pop\n        /* \"#utility.yul\":4272:4638   */\n      swap2\n      swap1\n      pop\n      jump\t// out\n        /* \"#utility.yul\":4644:5063   */\n    tag_27:\n        /* \"#utility.yul\":4810:4814   */\n      0x00\n        /* \"#utility.yul\":4848:4850   */\n      0x20\n        /* \"#utility.yul\":4837:4846   */\n      dup3\n        /* \"#utility.yul\":4833:4851   */\n      add\n        /* \"#utility.yul\":4825:4851   */\n      swap1\n      pop\n        /* \"#utility.yul\":4897:4906   */\n      dup2\n        /* \"#utility.yul\":4891:4895   */\n      dup2\n        /* \"#utility.yul\":4887:4907   */\n      sub\n        /* \"#utility.yul\":4883:4884   */\n      0x00\n        /* \"#utility.yul\":4872:4881   */\n      dup4\n        /* \"#utility.yul\":4868:4885   */\n      add\n        /* \"#utility.yul\":4861:4908   */\n      mstore\n        /* \"#utility.yul\":4925:5056   */\n      tag_104\n        /* \"#utility.yul\":5051:5055   */\n      dup2\n        /* \"#utility.yul\":4925:5056   */\n      tag_63\n      jump\t// in\n    tag_104:\n        /* \"#utility.yul\":4917:5056   */\n      swap1\n      pop\n        /* \"#utility.yul\":4644:5063   */\n      swap2\n      swap1\n      pop\n      jump\t// out\n        /* \"#utility.yul\":5069:5249   */\n    tag_30:\n        /* \"#utility.yul\":5117:5194   */\n      0x4e487b7100000000000000000000000000000000000000000000000000000000\n        /* \"#utility.yul\":5114:5115   */\n      0x00\n        /* \"#utility.yul\":5107:5195   */\n      mstore\n        /* \"#utility.yul\":5214:5218   */\n      0x32\n        /* \"#utility.yul\":5211:5212   */\n      0x04\n        /* \"#utility.yul\":5204:5219   */\n      mstore\n        /* \"#utility.yul\":5238:5242   */\n      0x24\n        /* \"#utility.yul\":5235:5236   */\n      0x00\n        /* \"#utility.yul\":5228:5243   */\n      revert\n        /* \"#utility.yul\":5255:5427   */\n    tag_64:\n        /* \"#utility.yul\":5395:5419   */\n      0x506f736974696f6e20616c72656164792074616b656e00000000000000000000\n        /* \"#utility.yul\":5391:5392   */\n      0x00\n        /* \"#utility.yul\":5383:5389   */\n      dup3\n        /* \"#utility.yul\":5379:5393   */\n      add\n        /* \"#utility.yul\":5372:5420   */\n      mstore\n        /* \"#utility.yul\":5255:5427   */\n      pop\n      jump\t// out\n        /* \"#utility.yul\":5433:5799   */\n    tag_65:\n        /* \"#utility.yul\":5575:5578   */\n      0x00\n        /* \"#utility.yul\":5596:5663   */\n      tag_108\n        /* \"#utility.yul\":5660:5662   */\n      0x16\n        /* \"#utility.yul\":5655:5658   */\n      dup4\n        /* \"#utility.yul\":5596:5663   */\n      tag_55\n      jump\t// in\n    tag_108:\n        /* \"#utility.yul\":5589:5663   */\n      swap2\n      pop\n        /* \"#utility.yul\":5672:5765   */\n      tag_109\n        /* \"#utility.yul\":5761:5764   */\n      dup3\n        /* \"#utility.yul\":5672:5765   */\n      tag_64\n      jump\t// in\n    tag_109:\n        /* \"#utility.yul\":5790:5792   */\n      0x20\n        /* \"#utility.yul\":5785:5788   */\n      dup3\n        /* \"#utility.yul\":5781:5793   */\n      add\n        /* \"#utility.yul\":5774:5793   */\n      swap1\n      pop\n        /* \"#utility.yul\":5433:5799   */\n      swap2\n      swap1\n      pop\n      jump\t// out\n        /* \"#utility.yul\":5805:6224   */\n    tag_34:\n        /* \"#utility.yul\":5971:5975   */\n      0x00\n        /* \"#utility.yul\":6009:6011   */\n      0x20\n        /* \"#utility.yul\":5998:6007   */\n      dup3\n        /* \"#utility.yul\":5994:6012   */\n      add\n        /* \"#utility.yul\":5986:6012   */\n      swap1\n      pop\n        /* \"#utility.yul\":6058:6067   */\n      dup2\n        /* \"#utility.yul\":6052:6056   */\n      dup2\n        /* \"#utility.yul\":6048:6068   */\n      sub\n        /* \"#utility.yul\":6044:6045   */\n      0x00\n        /* \"#utility.yul\":6033:6042   */\n      dup4\n        /* \"#utility.yul\":6029:6046   */\n      add\n        /* \"#utility.yul\":6022:6069   */\n      mstore\n        /* \"#utility.yul\":6086:6217   */\n      tag_111\n        /* \"#utility.yul\":6212:6216   */\n      dup2\n        /* \"#utility.yul\":6086:6217   */\n      tag_65\n      jump\t// in\n    tag_111:\n        /* \"#utility.yul\":6078:6217   */\n      swap1\n      pop\n        /* \"#utility.yul\":5805:6224   */\n      swap2\n      swap1\n      pop\n      jump\t// out\n\n    auxdata: 0xa26469706673582212209e988a6588870805b2def888616f8774391208f474c257096534cf633a009cc864736f6c634300081a0033\n}\n",
				"bytecode": {
					"linkReferences": {},
					"object": "6080604052348015600e575f80fd5b506040516108233803806108238339818101604052810190602e9190606c565b80600481905550506092565b5f80fd5b5f819050919050565b604e81603e565b81146057575f80fd5b50565b5f815190506066816047565b92915050565b5f60208284031215607e57607d603a565b5b5f608984828501605a565b91505092915050565b6107848061009f5f395ff3fe608060405260043610610028575f3560e01c80635c07a4b01461002c578063650271d214610036575b5f80fd5b61003461005e565b005b348015610041575f80fd5b5061005c600480360381019061005791906104de565b61025a565b005b600360019054906101000a900460ff16156100ae576040517f08c379a00000000000000000000000000000000000000000000000000000000081526004016100a590610563565b60405180910390fd5b60045434146100f2576040517f08c379a00000000000000000000000000000000000000000000000000000000081526004016100e9906105cb565b60405180910390fd5b5f73ffffffffffffffffffffffffffffffffffffffff165f8054906101000a900473ffffffffffffffffffffffffffffffffffffffff1673ffffffffffffffffffffffffffffffffffffffff160361018857335f806101000a81548173ffffffffffffffffffffffffffffffffffffffff021916908373ffffffffffffffffffffffffffffffffffffffff160217905550610258565b5f73ffffffffffffffffffffffffffffffffffffffff1660015f9054906101000a900473ffffffffffffffffffffffffffffffffffffffff1673ffffffffffffffffffffffffffffffffffffffff1614610217576040517f08c379a000000000000000000000000000000000000000000000000000000000815260040161020e90610633565b60405180910390fd5b3360015f6101000a81548173ffffffffffffffffffffffffffffffffffffffff021916908373ffffffffffffffffffffffffffffffffffffffff1602179055505b565b3373ffffffffffffffffffffffffffffffffffffffff165f8054906101000a900473ffffffffffffffffffffffffffffffffffffffff1673ffffffffffffffffffffffffffffffffffffffff1614806102ff57503373ffffffffffffffffffffffffffffffffffffffff1660015f9054906101000a900473ffffffffffffffffffffffffffffffffffffffff1673ffffffffffffffffffffffffffffffffffffffff16145b61033e576040517f08c379a00000000000000000000000000000000000000000000000000000000081526004016103359061069b565b60405180910390fd5b5f60028260ff1660098110610356576103556106b9565b5b602091828204019190069054906101000a900460ff1660ff16146103af576040517f08c379a00000000000000000000000000000000000000000000000000000000081526004016103a690610730565b60405180910390fd5b60035f9054906101000a900460ff1660028260ff16600981106103d5576103d46106b9565b5b602091828204019190066101000a81548160ff021916908360ff160217905550600160035f9054906101000a900460ff1660ff1614610415576001610418565b60025b60035f6101000a81548160ff021916908360ff16021790555061044860035f9054906101000a900460ff1661049a565b1561046d576001600360016101000a81548160ff021916908315150217905550610497565b6104756104a0565b15610496576001600360016101000a81548160ff0219169083151502179055505b5b50565b5f919050565b5f90565b5f80fd5b5f60ff82169050919050565b6104bd816104a8565b81146104c7575f80fd5b50565b5f813590506104d8816104b4565b92915050565b5f602082840312156104f3576104f26104a4565b5b5f610500848285016104ca565b91505092915050565b5f82825260208201905092915050565b7f47616d652068617320616c726561647920656e646564000000000000000000005f82015250565b5f61054d601683610509565b915061055882610519565b602082019050919050565b5f6020820190508181035f83015261057a81610541565b9050919050565b7f496e636f727265637420666565000000000000000000000000000000000000005f82015250565b5f6105b5600d83610509565b91506105c082610581565b602082019050919050565b5f6020820190508181035f8301526105e2816105a9565b9050919050565b7f47616d652069732066756c6c00000000000000000000000000000000000000005f82015250565b5f61061d600c83610509565b9150610628826105e9565b602082019050919050565b5f6020820190508181035f83015261064a81610611565b9050919050565b7f4e6f7420796f7572207475726e000000000000000000000000000000000000005f82015250565b5f610685600d83610509565b915061069082610651565b602082019050919050565b5f6020820190508181035f8301526106b281610679565b9050919050565b7f4e487b71000000000000000000000000000000000000000000000000000000005f52603260045260245ffd5b7f506f736974696f6e20616c72656164792074616b656e000000000000000000005f82015250565b5f61071a601683610509565b9150610725826106e6565b602082019050919050565b5f6020820190508181035f8301526107478161070e565b905091905056fea26469706673582212209e988a6588870805b2def888616f8774391208f474c257096534cf633a009cc864736f6c634300081a0033",
					"opcodes": "PUSH1 0x80 PUSH1 0x40 MSTORE CALLVALUE DUP1 ISZERO PUSH1 0xE JUMPI PUSH0 DUP1 REVERT JUMPDEST POP PUSH1 0x40 MLOAD PUSH2 0x823 CODESIZE SUB DUP1 PUSH2 0x823 DUP4 CODECOPY DUP2 DUP2 ADD PUSH1 0x40 MSTORE DUP2 ADD SWAP1 PUSH1 0x2E SWAP2 SWAP1 PUSH1 0x6C JUMP JUMPDEST DUP1 PUSH1 0x4 DUP2 SWAP1 SSTORE POP POP PUSH1 0x92 JUMP JUMPDEST PUSH0 DUP1 REVERT JUMPDEST PUSH0 DUP2 SWAP1 POP SWAP2 SWAP1 POP JUMP JUMPDEST PUSH1 0x4E DUP2 PUSH1 0x3E JUMP JUMPDEST DUP2 EQ PUSH1 0x57 JUMPI PUSH0 DUP1 REVERT JUMPDEST POP JUMP JUMPDEST PUSH0 DUP2 MLOAD SWAP1 POP PUSH1 0x66 DUP2 PUSH1 0x47 JUMP JUMPDEST SWAP3 SWAP2 POP POP JUMP JUMPDEST PUSH0 PUSH1 0x20 DUP3 DUP5 SUB SLT ISZERO PUSH1 0x7E JUMPI PUSH1 0x7D PUSH1 0x3A JUMP JUMPDEST JUMPDEST PUSH0 PUSH1 0x89 DUP5 DUP3 DUP6 ADD PUSH1 0x5A JUMP JUMPDEST SWAP2 POP POP SWAP3 SWAP2 POP POP JUMP JUMPDEST PUSH2 0x784 DUP1 PUSH2 0x9F PUSH0 CODECOPY PUSH0 RETURN INVALID PUSH1 0x80 PUSH1 0x40 MSTORE PUSH1 0x4 CALLDATASIZE LT PUSH2 0x28 JUMPI PUSH0 CALLDATALOAD PUSH1 0xE0 SHR DUP1 PUSH4 0x5C07A4B0 EQ PUSH2 0x2C JUMPI DUP1 PUSH4 0x650271D2 EQ PUSH2 0x36 JUMPI JUMPDEST PUSH0 DUP1 REVERT JUMPDEST PUSH2 0x34 PUSH2 0x5E JUMP JUMPDEST STOP JUMPDEST CALLVALUE DUP1 ISZERO PUSH2 0x41 JUMPI PUSH0 DUP1 REVERT JUMPDEST POP PUSH2 0x5C PUSH1 0x4 DUP1 CALLDATASIZE SUB DUP2 ADD SWAP1 PUSH2 0x57 SWAP2 SWAP1 PUSH2 0x4DE JUMP JUMPDEST PUSH2 0x25A JUMP JUMPDEST STOP JUMPDEST PUSH1 0x3 PUSH1 0x1 SWAP1 SLOAD SWAP1 PUSH2 0x100 EXP SWAP1 DIV PUSH1 0xFF AND ISZERO PUSH2 0xAE JUMPI PUSH1 0x40 MLOAD PUSH32 0x8C379A000000000000000000000000000000000000000000000000000000000 DUP2 MSTORE PUSH1 0x4 ADD PUSH2 0xA5 SWAP1 PUSH2 0x563 JUMP JUMPDEST PUSH1 0x40 MLOAD DUP1 SWAP2 SUB SWAP1 REVERT JUMPDEST PUSH1 0x4 SLOAD CALLVALUE EQ PUSH2 0xF2 JUMPI PUSH1 0x40 MLOAD PUSH32 0x8C379A000000000000000000000000000000000000000000000000000000000 DUP2 MSTORE PUSH1 0x4 ADD PUSH2 0xE9 SWAP1 PUSH2 0x5CB JUMP JUMPDEST PUSH1 0x40 MLOAD DUP1 SWAP2 SUB SWAP1 REVERT JUMPDEST PUSH0 PUSH20 0xFFFFFFFFFFFFFFFFFFFFFFFFFFFFFFFFFFFFFFFF AND PUSH0 DUP1 SLOAD SWAP1 PUSH2 0x100 EXP SWAP1 DIV PUSH20 0xFFFFFFFFFFFFFFFFFFFFFFFFFFFFFFFFFFFFFFFF AND PUSH20 0xFFFFFFFFFFFFFFFFFFFFFFFFFFFFFFFFFFFFFFFF AND SUB PUSH2 0x188 JUMPI CALLER PUSH0 DUP1 PUSH2 0x100 EXP DUP2 SLOAD DUP2 PUSH20 0xFFFFFFFFFFFFFFFFFFFFFFFFFFFFFFFFFFFFFFFF MUL NOT AND SWAP1 DUP4 PUSH20 0xFFFFFFFFFFFFFFFFFFFFFFFFFFFFFFFFFFFFFFFF AND MUL OR SWAP1 SSTORE POP PUSH2 0x258 JUMP JUMPDEST PUSH0 PUSH20 0xFFFFFFFFFFFFFFFFFFFFFFFFFFFFFFFFFFFFFFFF AND PUSH1 0x1 PUSH0 SWAP1 SLOAD SWAP1 PUSH2 0x100 EXP SWAP1 DIV PUSH20 0xFFFFFFFFFFFFFFFFFFFFFFFFFFFFFFFFFFFFFFFF AND PUSH20 0xFFFFFFFFFFFFFFFFFFFFFFFFFFFFFFFFFFFFFFFF AND EQ PUSH2 0x217 JUMPI PUSH1 0x40 MLOAD PUSH32 0x8C379A000000000000000000000000000000000000000000000000000000000 DUP2 MSTORE PUSH1 0x4 ADD PUSH2 0x20E SWAP1 PUSH2 0x633 JUMP JUMPDEST PUSH1 0x40 MLOAD DUP1 SWAP2 SUB SWAP1 REVERT JUMPDEST CALLER PUSH1 0x1 PUSH0 PUSH2 0x100 EXP DUP2 SLOAD DUP2 PUSH20 0xFFFFFFFFFFFFFFFFFFFFFFFFFFFFFFFFFFFFFFFF MUL NOT AND SWAP1 DUP4 PUSH20 0xFFFFFFFFFFFFFFFFFFFFFFFFFFFFFFFFFFFFFFFF AND MUL OR SWAP1 SSTORE POP JUMPDEST JUMP JUMPDEST CALLER PUSH20 0xFFFFFFFFFFFFFFFFFFFFFFFFFFFFFFFFFFFFFFFF AND PUSH0 DUP1 SLOAD SWAP1 PUSH2 0x100 EXP SWAP1 DIV PUSH20 0xFFFFFFFFFFFFFFFFFFFFFFFFFFFFFFFFFFFFFFFF AND PUSH20 0xFFFFFFFFFFFFFFFFFFFFFFFFFFFFFFFFFFFFFFFF AND EQ DUP1 PUSH2 0x2FF JUMPI POP CALLER PUSH20 0xFFFFFFFFFFFFFFFFFFFFFFFFFFFFFFFFFFFFFFFF AND PUSH1 0x1 PUSH0 SWAP1 SLOAD SWAP1 PUSH2 0x100 EXP SWAP1 DIV PUSH20 0xFFFFFFFFFFFFFFFFFFFFFFFFFFFFFFFFFFFFFFFF AND PUSH20 0xFFFFFFFFFFFFFFFFFFFFFFFFFFFFFFFFFFFFFFFF AND EQ JUMPDEST PUSH2 0x33E JUMPI PUSH1 0x40 MLOAD PUSH32 0x8C379A000000000000000000000000000000000000000000000000000000000 DUP2 MSTORE PUSH1 0x4 ADD PUSH2 0x335 SWAP1 PUSH2 0x69B JUMP JUMPDEST PUSH1 0x40 MLOAD DUP1 SWAP2 SUB SWAP1 REVERT JUMPDEST PUSH0 PUSH1 0x2 DUP3 PUSH1 0xFF AND PUSH1 0x9 DUP2 LT PUSH2 0x356 JUMPI PUSH2 0x355 PUSH2 0x6B9 JUMP JUMPDEST JUMPDEST PUSH1 0x20 SWAP2 DUP3 DUP3 DIV ADD SWAP2 SWAP1 MOD SWAP1 SLOAD SWAP1 PUSH2 0x100 EXP SWAP1 DIV PUSH1 0xFF AND PUSH1 0xFF AND EQ PUSH2 0x3AF JUMPI PUSH1 0x40 MLOAD PUSH32 0x8C379A000000000000000000000000000000000000000000000000000000000 DUP2 MSTORE PUSH1 0x4 ADD PUSH2 0x3A6 SWAP1 PUSH2 0x730 JUMP JUMPDEST PUSH1 0x40 MLOAD DUP1 SWAP2 SUB SWAP1 REVERT JUMPDEST PUSH1 0x3 PUSH0 SWAP1 SLOAD SWAP1 PUSH2 0x100 EXP SWAP1 DIV PUSH1 0xFF AND PUSH1 0x2 DUP3 PUSH1 0xFF AND PUSH1 0x9 DUP2 LT PUSH2 0x3D5 JUMPI PUSH2 0x3D4 PUSH2 0x6B9 JUMP JUMPDEST JUMPDEST PUSH1 0x20 SWAP2 DUP3 DUP3 DIV ADD SWAP2 SWAP1 MOD PUSH2 0x100 EXP DUP2 SLOAD DUP2 PUSH1 0xFF MUL NOT AND SWAP1 DUP4 PUSH1 0xFF AND MUL OR SWAP1 SSTORE POP PUSH1 0x1 PUSH1 0x3 PUSH0 SWAP1 SLOAD SWAP1 PUSH2 0x100 EXP SWAP1 DIV PUSH1 0xFF AND PUSH1 0xFF AND EQ PUSH2 0x415 JUMPI PUSH1 0x1 PUSH2 0x418 JUMP JUMPDEST PUSH1 0x2 JUMPDEST PUSH1 0x3 PUSH0 PUSH2 0x100 EXP DUP2 SLOAD DUP2 PUSH1 0xFF MUL NOT AND SWAP1 DUP4 PUSH1 0xFF AND MUL OR SWAP1 SSTORE POP PUSH2 0x448 PUSH1 0x3 PUSH0 SWAP1 SLOAD SWAP1 PUSH2 0x100 EXP SWAP1 DIV PUSH1 0xFF AND PUSH2 0x49A JUMP JUMPDEST ISZERO PUSH2 0x46D JUMPI PUSH1 0x1 PUSH1 0x3 PUSH1 0x1 PUSH2 0x100 EXP DUP2 SLOAD DUP2 PUSH1 0xFF MUL NOT AND SWAP1 DUP4 ISZERO ISZERO MUL OR SWAP1 SSTORE POP PUSH2 0x497 JUMP JUMPDEST PUSH2 0x475 PUSH2 0x4A0 JUMP JUMPDEST ISZERO PUSH2 0x496 JUMPI PUSH1 0x1 PUSH1 0x3 PUSH1 0x1 PUSH2 0x100 EXP DUP2 SLOAD DUP2 PUSH1 0xFF MUL NOT AND SWAP1 DUP4 ISZERO ISZERO MUL OR SWAP1 SSTORE POP JUMPDEST JUMPDEST POP JUMP JUMPDEST PUSH0 SWAP2 SWAP1 POP JUMP JUMPDEST PUSH0 SWAP1 JUMP JUMPDEST PUSH0 DUP1 REVERT JUMPDEST PUSH0 PUSH1 0xFF DUP3 AND SWAP1 POP SWAP2 SWAP1 POP JUMP JUMPDEST PUSH2 0x4BD DUP2 PUSH2 0x4A8 JUMP JUMPDEST DUP2 EQ PUSH2 0x4C7 JUMPI PUSH0 DUP1 REVERT JUMPDEST POP JUMP JUMPDEST PUSH0 DUP2 CALLDATALOAD SWAP1 POP PUSH2 0x4D8 DUP2 PUSH2 0x4B4 JUMP JUMPDEST SWAP3 SWAP2 POP POP JUMP JUMPDEST PUSH0 PUSH1 0x20 DUP3 DUP5 SUB SLT ISZERO PUSH2 0x4F3 JUMPI PUSH2 0x4F2 PUSH2 0x4A4 JUMP JUMPDEST JUMPDEST PUSH0 PUSH2 0x500 DUP5 DUP3 DUP6 ADD PUSH2 0x4CA JUMP JUMPDEST SWAP2 POP POP SWAP3 SWAP2 POP POP JUMP JUMPDEST PUSH0 DUP3 DUP3 MSTORE PUSH1 0x20 DUP3 ADD SWAP1 POP SWAP3 SWAP2 POP POP JUMP JUMPDEST PUSH32 0x47616D652068617320616C726561647920656E64656400000000000000000000 PUSH0 DUP3 ADD MSTORE POP JUMP JUMPDEST PUSH0 PUSH2 0x54D PUSH1 0x16 DUP4 PUSH2 0x509 JUMP JUMPDEST SWAP2 POP PUSH2 0x558 DUP3 PUSH2 0x519 JUMP JUMPDEST PUSH1 0x20 DUP3 ADD SWAP1 POP SWAP2 SWAP1 POP JUMP JUMPDEST PUSH0 PUSH1 0x20 DUP3 ADD SWAP1 POP DUP2 DUP2 SUB PUSH0 DUP4 ADD MSTORE PUSH2 0x57A DUP2 PUSH2 0x541 JUMP JUMPDEST SWAP1 POP SWAP2 SWAP1 POP JUMP JUMPDEST PUSH32 0x496E636F72726563742066656500000000000000000000000000000000000000 PUSH0 DUP3 ADD MSTORE POP JUMP JUMPDEST PUSH0 PUSH2 0x5B5 PUSH1 0xD DUP4 PUSH2 0x509 JUMP JUMPDEST SWAP2 POP PUSH2 0x5C0 DUP3 PUSH2 0x581 JUMP JUMPDEST PUSH1 0x20 DUP3 ADD SWAP1 POP SWAP2 SWAP1 POP JUMP JUMPDEST PUSH0 PUSH1 0x20 DUP3 ADD SWAP1 POP DUP2 DUP2 SUB PUSH0 DUP4 ADD MSTORE PUSH2 0x5E2 DUP2 PUSH2 0x5A9 JUMP JUMPDEST SWAP1 POP SWAP2 SWAP1 POP JUMP JUMPDEST PUSH32 0x47616D652069732066756C6C0000000000000000000000000000000000000000 PUSH0 DUP3 ADD MSTORE POP JUMP JUMPDEST PUSH0 PUSH2 0x61D PUSH1 0xC DUP4 PUSH2 0x509 JUMP JUMPDEST SWAP2 POP PUSH2 0x628 DUP3 PUSH2 0x5E9 JUMP JUMPDEST PUSH1 0x20 DUP3 ADD SWAP1 POP SWAP2 SWAP1 POP JUMP JUMPDEST PUSH0 PUSH1 0x20 DUP3 ADD SWAP1 POP DUP2 DUP2 SUB PUSH0 DUP4 ADD MSTORE PUSH2 0x64A DUP2 PUSH2 0x611 JUMP JUMPDEST SWAP1 POP SWAP2 SWAP1 POP JUMP JUMPDEST PUSH32 0x4E6F7420796F7572207475726E00000000000000000000000000000000000000 PUSH0 DUP3 ADD MSTORE POP JUMP JUMPDEST PUSH0 PUSH2 0x685 PUSH1 0xD DUP4 PUSH2 0x509 JUMP JUMPDEST SWAP2 POP PUSH2 0x690 DUP3 PUSH2 0x651 JUMP JUMPDEST PUSH1 0x20 DUP3 ADD SWAP1 POP SWAP2 SWAP1 POP JUMP JUMPDEST PUSH0 PUSH1 0x20 DUP3 ADD SWAP1 POP DUP2 DUP2 SUB PUSH0 DUP4 ADD MSTORE PUSH2 0x6B2 DUP2 PUSH2 0x679 JUMP JUMPDEST SWAP1 POP SWAP2 SWAP1 POP JUMP JUMPDEST PUSH32 0x4E487B7100000000000000000000000000000000000000000000000000000000 PUSH0 MSTORE PUSH1 0x32 PUSH1 0x4 MSTORE PUSH1 0x24 PUSH0 REVERT JUMPDEST PUSH32 0x506F736974696F6E20616C72656164792074616B656E00000000000000000000 PUSH0 DUP3 ADD MSTORE POP JUMP JUMPDEST PUSH0 PUSH2 0x71A PUSH1 0x16 DUP4 PUSH2 0x509 JUMP JUMPDEST SWAP2 POP PUSH2 0x725 DUP3 PUSH2 0x6E6 JUMP JUMPDEST PUSH1 0x20 DUP3 ADD SWAP1 POP SWAP2 SWAP1 POP JUMP JUMPDEST PUSH0 PUSH1 0x20 DUP3 ADD SWAP1 POP DUP2 DUP2 SUB PUSH0 DUP4 ADD MSTORE PUSH2 0x747 DUP2 PUSH2 0x70E JUMP JUMPDEST SWAP1 POP SWAP2 SWAP1 POP JUMP INVALID LOG2 PUSH5 0x6970667358 0x22 SLT KECCAK256 SWAP15 SWAP9 DUP11 PUSH6 0x88870805B2DE 0xF8 DUP9 PUSH2 0x6F87 PUSH21 0x391208F474C257096534CF633A009CC864736F6C63 NUMBER STOP ADDMOD BYTE STOP CALLER "
				},
				"gasEstimates": {
					"creation": {
						"codeDepositCost": "384800",
						"executionCost": "infinite",
						"totalCost": "infinite"
					},
					"external": {
						"makeMove(uint8)": "65310",
						"registerPlayer()": "33026"
					},
					"internal": {
						"isBoardFull()": "14",
						"isWinner(uint8)": "19"
					}
				},
				"methodIdentifiers": {
					"makeMove(uint8)": "650271d2",
					"registerPlayer()": "5c07a4b0"
				}
			},
			"storageLayout": {
				"storage": [
					{
						"astId": 3,
						"contract": "pi_game_test.sol:TicTacToe",
						"label": "player1",
						"offset": 0,
						"slot": "0",
						"type": "t_address_payable"
					},
					{
						"astId": 5,
						"contract": "pi_game_test.sol:TicTacToe",
						"label": "player2",
						"offset": 0,
						"slot": "1",
						"type": "t_address_payable"
					},
					{
						"astId": 9,
						"contract": "pi_game_test.sol:TicTacToe",
						"label": "board",
						"offset": 0,
						"slot": "2",
						"type": "t_array(t_uint8)9_storage"
					},
					{
						"astId": 11,
						"contract": "pi_game_test.sol:TicTacToe",
						"label": "currentPlayer",
						"offset": 0,
						"slot": "3",
						"type": "t_uint8"
					},
					{
						"astId": 13,
						"contract": "pi_game_test.sol:TicTacToe",
						"label": "gameEnded",
						"offset": 1,
						"slot": "3",
						"type": "t_bool"
					},
					{
						"astId": 15,
						"contract": "pi_game_test.sol:TicTacToe",
						"label": "gameFee",
						"offset": 0,
						"slot": "4",
						"type": "t_uint256"
					}
				],
				"types": {
					"t_address_payable": {
						"encoding": "inplace",
						"label": "address payable",
						"numberOfBytes": "20"
					},
					"t_array(t_uint8)9_storage": {
						"base": "t_uint8",
						"encoding": "inplace",
						"label": "uint8[9]",
						"numberOfBytes": "32"
					},
					"t_bool": {
						"encoding": "inplace",
						"label": "bool",
						"numberOfBytes": "1"
					},
					"t_uint256": {
						"encoding": "inplace",
						"label": "uint256",
						"numberOfBytes": "32"
					},
					"t_uint8": {
						"encoding": "inplace",
						"label": "uint8",
						"numberOfBytes": "1"
					}
				}
			},
			"userdoc": {
				"kind": "user",
				"methods": {},
				"version": 1
			}
		}
	}
}