{
	"tic_toc_test.sol": {
		"TicTacToe": {
			"abi": [
				{
					"inputs": [
						{
							"internalType": "uint256",
							"name": "_gameFee",
							"type": "uint256"
						}
					],
					"stateMutability": "nonpayable",
					"type": "constructor"
				},
				{
					"inputs": [
						{
							"internalType": "uint8",
							"name": "position",
							"type": "uint8"
						}
					],
					"name": "makeMove",
					"outputs": [],
					"stateMutability": "nonpayable",
					"type": "function"
				},
				{
					"inputs": [],
					"name": "registerPlayer",
					"outputs": [],
					"stateMutability": "payable",
					"type": "function"
				}
			],
			"devdoc": {
				"kind": "dev",
				"methods": {},
				"version": 1
			},
			"evm": {
				"assembly": "    /* \"tic_toc_test.sol\":979:2666  contract TicTacToe {... */\n  mstore(0x40, 0x80)\n    /* \"tic_toc_test.sol\":1213:1278  constructor(uint256 _gameFee) {... */\n  callvalue\n  dup1\n  iszero\n  tag_1\n  jumpi\n  0x00\n  dup1\n  revert\ntag_1:\n  pop\n  mload(0x40)\n  sub(codesize, bytecodeSize)\n  dup1\n  bytecodeSize\n  dup4\n  codecopy\n  dup2\n  dup2\n  add\n  0x40\n  mstore\n  dup2\n  add\n  swap1\n  tag_2\n  swap2\n  swap1\n  tag_3\n  jump\t// in\ntag_2:\n    /* \"tic_toc_test.sol\":1263:1271  _gameFee */\n  dup1\n    /* \"tic_toc_test.sol\":1253:1260  gameFee */\n  0x04\n    /* \"tic_toc_test.sol\":1253:1271  gameFee = _gameFee */\n  dup2\n  swap1\n  sstore\n  pop\n    /* \"tic_toc_test.sol\":1213:1278  constructor(uint256 _gameFee) {... */\n  pop\n    /* \"tic_toc_test.sol\":979:2666  contract TicTacToe {... */\n  jump(tag_6)\n    /* \"#utility.yul\":88:205   */\ntag_8:\n    /* \"#utility.yul\":197:198   */\n  0x00\n    /* \"#utility.yul\":194:195   */\n  dup1\n    /* \"#utility.yul\":187:199   */\n  revert\n    /* \"#utility.yul\":334:411   */\ntag_10:\n    /* \"#utility.yul\":371:378   */\n  0x00\n    /* \"#utility.yul\":400:405   */\n  dup2\n    /* \"#utility.yul\":389:405   */\n  swap1\n  pop\n    /* \"#utility.yul\":334:411   */\n  swap2\n  swap1\n  pop\n  jump\t// out\n    /* \"#utility.yul\":417:539   */\ntag_11:\n    /* \"#utility.yul\":490:514   */\n  tag_19\n    /* \"#utility.yul\":508:513   */\n  dup2\n    /* \"#utility.yul\":490:514   */\n  tag_10\n  jump\t// in\ntag_19:\n    /* \"#utility.yul\":483:488   */\n  dup2\n    /* \"#utility.yul\":480:515   */\n  eq\n    /* \"#utility.yul\":470:533   */\n  tag_20\n  jumpi\n    /* \"#utility.yul\":529:530   */\n  0x00\n    /* \"#utility.yul\":526:527   */\n  dup1\n    /* \"#utility.yul\":519:531   */\n  revert\n    /* \"#utility.yul\":470:533   */\ntag_20:\n    /* \"#utility.yul\":417:539   */\n  pop\n  jump\t// out\n    /* \"#utility.yul\":545:688   */\ntag_12:\n    /* \"#utility.yul\":602:607   */\n  0x00\n    /* \"#utility.yul\":633:639   */\n  dup2\n    /* \"#utility.yul\":627:640   */\n  mload\n    /* \"#utility.yul\":618:640   */\n  swap1\n  pop\n    /* \"#utility.yul\":649:682   */\n  tag_22\n    /* \"#utility.yul\":676:681   */\n  dup2\n    /* \"#utility.yul\":649:682   */\n  tag_11\n  jump\t// in\ntag_22:\n    /* \"#utility.yul\":545:688   */\n  swap3\n  swap2\n  pop\n  pop\n  jump\t// out\n    /* \"#utility.yul\":694:1045   */\ntag_3:\n    /* \"#utility.yul\":764:770   */\n  0x00\n    /* \"#utility.yul\":813:815   */\n  0x20\n    /* \"#utility.yul\":801:810   */\n  dup3\n    /* \"#utility.yul\":792:799   */\n  dup5\n    /* \"#utility.yul\":788:811   */\n  sub\n    /* \"#utility.yul\":784:816   */\n  slt\n    /* \"#utility.yul\":781:900   */\n  iszero\n  tag_24\n  jumpi\n    /* \"#utility.yul\":819:898   */\n  tag_25\n  tag_8\n  jump\t// in\ntag_25:\n    /* \"#utility.yul\":781:900   */\ntag_24:\n    /* \"#utility.yul\":939:940   */\n  0x00\n    /* \"#utility.yul\":964:1028   */\n  tag_26\n    /* \"#utility.yul\":1020:1027   */\n  dup5\n    /* \"#utility.yul\":1011:1017   */\n  dup3\n    /* \"#utility.yul\":1000:1009   */\n  dup6\n    /* \"#utility.yul\":996:1018   */\n  add\n    /* \"#utility.yul\":964:1028   */\n  tag_12\n  jump\t// in\ntag_26:\n    /* \"#utility.yul\":954:1028   */\n  swap2\n  pop\n    /* \"#utility.yul\":910:1038   */\n  pop\n    /* \"#utility.yul\":694:1045   */\n  swap3\n  swap2\n  pop\n  pop\n  jump\t// out\n    /* \"tic_toc_test.sol\":979:2666  contract TicTacToe {... */\ntag_6:\n  dataSize(sub_0)\n  dup1\n  dataOffset(sub_0)\n  0x00\n  codecopy\n  0x00\n  return\nstop\n\nsub_0: assembly {\n        /* \"tic_toc_test.sol\":979:2666  contract TicTacToe {... */\n      mstore(0x40, 0x80)\n      jumpi(tag_1, lt(calldatasize, 0x04))\n      shr(0xe0, calldataload(0x00))\n      dup1\n      0x5c07a4b0\n      eq\n      tag_2\n      jumpi\n      dup1\n      0x650271d2\n      eq\n      tag_3\n      jumpi\n    tag_1:\n      0x00\n      dup1\n      revert\n        /* \"tic_toc_test.sol\":1325:1697  function registerPlayer() external payable {... */\n    tag_2:\n      tag_4\n      tag_5\n      jump\t// in\n    tag_4:\n      stop\n        /* \"tic_toc_test.sol\":1753:2437  function makeMove(uint8 position) external {... */\n    tag_3:\n      callvalue\n      dup1\n      iszero\n      tag_6\n      jumpi\n      0x00\n      dup1\n      revert\n    tag_6:\n      pop\n      tag_7\n      0x04\n      dup1\n      calldatasize\n      sub\n      dup2\n      add\n      swap1\n      tag_8\n      swap2\n      swap1\n      tag_9\n      jump\t// in\n    tag_8:\n      tag_10\n      jump\t// in\n    tag_7:\n      stop\n        /* \"tic_toc_test.sol\":1325:1697  function registerPlayer() external payable {... */\n    tag_5:\n        /* \"tic_toc_test.sol\":1387:1396  gameEnded */\n      0x03\n      0x01\n      swap1\n      sload\n      swap1\n      0x0100\n      exp\n      swap1\n      div\n      0xff\n      and\n        /* \"tic_toc_test.sol\":1386:1396  !gameEnded */\n      iszero\n        /* \"tic_toc_test.sol\":1378:1423  require(!gameEnded, \"Game has already ended\") */\n      tag_12\n      jumpi\n      mload(0x40)\n      0x08c379a000000000000000000000000000000000000000000000000000000000\n      dup2\n      mstore\n      0x04\n      add\n      tag_13\n      swap1\n      tag_14\n      jump\t// in\n    tag_13:\n      mload(0x40)\n      dup1\n      swap2\n      sub\n      swap1\n      revert\n    tag_12:\n        /* \"tic_toc_test.sol\":1454:1461  gameFee */\n      sload(0x04)\n        /* \"tic_toc_test.sol\":1441:1450  msg.value */\n      callvalue\n        /* \"tic_toc_test.sol\":1441:1461  msg.value == gameFee */\n      eq\n        /* \"tic_toc_test.sol\":1433:1479  require(msg.value == gameFee, \"Incorrect fee\") */\n      tag_15\n      jumpi\n      mload(0x40)\n      0x08c379a000000000000000000000000000000000000000000000000000000000\n      dup2\n      mstore\n      0x04\n      add\n      tag_16\n      swap1\n      tag_17\n      jump\t// in\n    tag_16:\n      mload(0x40)\n      dup1\n      swap2\n      sub\n      swap1\n      revert\n    tag_15:\n        /* \"tic_toc_test.sol\":1513:1514  0 */\n      0x00\n        /* \"tic_toc_test.sol\":1494:1515  player1 == address(0) */\n      0xffffffffffffffffffffffffffffffffffffffff\n      and\n        /* \"tic_toc_test.sol\":1494:1501  player1 */\n      0x00\n      dup1\n      sload\n      swap1\n      0x0100\n      exp\n      swap1\n      div\n      0xffffffffffffffffffffffffffffffffffffffff\n      and\n        /* \"tic_toc_test.sol\":1494:1515  player1 == address(0) */\n      0xffffffffffffffffffffffffffffffffffffffff\n      and\n      sub\n        /* \"tic_toc_test.sol\":1490:1691  if (player1 == address(0)) {... */\n      tag_18\n      jumpi\n        /* \"tic_toc_test.sol\":1549:1559  msg.sender */\n      caller\n        /* \"tic_toc_test.sol\":1531:1538  player1 */\n      0x00\n      dup1\n        /* \"tic_toc_test.sol\":1531:1560  player1 = payable(msg.sender) */\n      0x0100\n      exp\n      dup2\n      sload\n      dup2\n      0xffffffffffffffffffffffffffffffffffffffff\n      mul\n      not\n      and\n      swap1\n      dup4\n      0xffffffffffffffffffffffffffffffffffffffff\n      and\n      mul\n      or\n      swap1\n      sstore\n      pop\n        /* \"tic_toc_test.sol\":1490:1691  if (player1 == address(0)) {... */\n      jump(tag_19)\n    tag_18:\n        /* \"tic_toc_test.sol\":1618:1619  0 */\n      0x00\n        /* \"tic_toc_test.sol\":1599:1620  player2 == address(0) */\n      0xffffffffffffffffffffffffffffffffffffffff\n      and\n        /* \"tic_toc_test.sol\":1599:1606  player2 */\n      0x01\n      0x00\n      swap1\n      sload\n      swap1\n      0x0100\n      exp\n      swap1\n      div\n      0xffffffffffffffffffffffffffffffffffffffff\n      and\n        /* \"tic_toc_test.sol\":1599:1620  player2 == address(0) */\n      0xffffffffffffffffffffffffffffffffffffffff\n      and\n      eq\n        /* \"tic_toc_test.sol\":1591:1637  require(player2 == address(0), \"Game is full\") */\n      tag_20\n      jumpi\n      mload(0x40)\n      0x08c379a000000000000000000000000000000000000000000000000000000000\n      dup2\n      mstore\n      0x04\n      add\n      tag_21\n      swap1\n      tag_22\n      jump\t// in\n    tag_21:\n      mload(0x40)\n      dup1\n      swap2\n      sub\n      swap1\n      revert\n    tag_20:\n        /* \"tic_toc_test.sol\":1669:1679  msg.sender */\n      caller\n        /* \"tic_toc_test.sol\":1651:1658  player2 */\n      0x01\n      0x00\n        /* \"tic_toc_test.sol\":1651:1680  player2 = payable(msg.sender) */\n      0x0100\n      exp\n      dup2\n      sload\n      dup2\n      0xffffffffffffffffffffffffffffffffffffffff\n      mul\n      not\n      and\n      swap1\n      dup4\n      0xffffffffffffffffffffffffffffffffffffffff\n      and\n      mul\n      or\n      swap1\n      sstore\n      pop\n        /* \"tic_toc_test.sol\":1490:1691  if (player1 == address(0)) {... */\n    tag_19:\n        /* \"tic_toc_test.sol\":1325:1697  function registerPlayer() external payable {... */\n      jump\t// out\n        /* \"tic_toc_test.sol\":1753:2437  function makeMove(uint8 position) external {... */\n    tag_10:\n        /* \"tic_toc_test.sol\":1815:1822  _locked */\n      0x05\n      0x00\n      swap1\n      sload\n      swap1\n      0x0100\n      exp\n      swap1\n      div\n      0xff\n      and\n        /* \"tic_toc_test.sol\":1814:1822  !_locked */\n      iszero\n        /* \"tic_toc_test.sol\":1806:1843  require(!_locked, \"Reentrancy Guard\") */\n      tag_24\n      jumpi\n      mload(0x40)\n      0x08c379a000000000000000000000000000000000000000000000000000000000\n      dup2\n      mstore\n      0x04\n      add\n      tag_25\n      swap1\n      tag_26\n      jump\t// in\n    tag_25:\n      mload(0x40)\n      dup1\n      swap2\n      sub\n      swap1\n      revert\n    tag_24:\n        /* \"tic_toc_test.sol\":1863:1867  true */\n      0x01\n        /* \"tic_toc_test.sol\":1853:1860  _locked */\n      0x05\n      0x00\n        /* \"tic_toc_test.sol\":1853:1867  _locked = true */\n      0x0100\n      exp\n      dup2\n      sload\n      dup2\n      0xff\n      mul\n      not\n      and\n      swap1\n      dup4\n      iszero\n      iszero\n      mul\n      or\n      swap1\n      sstore\n      pop\n        /* \"tic_toc_test.sol\":1896:1906  msg.sender */\n      caller\n        /* \"tic_toc_test.sol\":1885:1906  player1 == msg.sender */\n      0xffffffffffffffffffffffffffffffffffffffff\n      and\n        /* \"tic_toc_test.sol\":1885:1892  player1 */\n      0x00\n      dup1\n      sload\n      swap1\n      0x0100\n      exp\n      swap1\n      div\n      0xffffffffffffffffffffffffffffffffffffffff\n      and\n        /* \"tic_toc_test.sol\":1885:1906  player1 == msg.sender */\n      0xffffffffffffffffffffffffffffffffffffffff\n      and\n      eq\n        /* \"tic_toc_test.sol\":1885:1931  player1 == msg.sender || player2 == msg.sender */\n      dup1\n      tag_27\n      jumpi\n      pop\n        /* \"tic_toc_test.sol\":1921:1931  msg.sender */\n      caller\n        /* \"tic_toc_test.sol\":1910:1931  player2 == msg.sender */\n      0xffffffffffffffffffffffffffffffffffffffff\n      and\n        /* \"tic_toc_test.sol\":1910:1917  player2 */\n      0x01\n      0x00\n      swap1\n      sload\n      swap1\n      0x0100\n      exp\n      swap1\n      div\n      0xffffffffffffffffffffffffffffffffffffffff\n      and\n        /* \"tic_toc_test.sol\":1910:1931  player2 == msg.sender */\n      0xffffffffffffffffffffffffffffffffffffffff\n      and\n      eq\n        /* \"tic_toc_test.sol\":1885:1931  player1 == msg.sender || player2 == msg.sender */\n    tag_27:\n        /* \"tic_toc_test.sol\":1877:1949  require(player1 == msg.sender || player2 == msg.sender, \"Not your turn\") */\n      tag_28\n      jumpi\n      mload(0x40)\n      0x08c379a000000000000000000000000000000000000000000000000000000000\n      dup2\n      mstore\n      0x04\n      add\n      tag_29\n      swap1\n      tag_30\n      jump\t// in\n    tag_29:\n      mload(0x40)\n      dup1\n      swap2\n      sub\n      swap1\n      revert\n    tag_28:\n        /* \"tic_toc_test.sol\":2045:2046  0 */\n      0x00\n        /* \"tic_toc_test.sol\":2026:2031  board */\n      0x02\n        /* \"tic_toc_test.sol\":2032:2040  position */\n      dup3\n        /* \"tic_toc_test.sol\":2026:2041  board[position] */\n      0xff\n      and\n      0x09\n      dup2\n      lt\n      tag_31\n      jumpi\n      tag_32\n      tag_33\n      jump\t// in\n    tag_32:\n    tag_31:\n      0x20\n      swap2\n      dup3\n      dup3\n      div\n      add\n      swap2\n      swap1\n      mod\n      swap1\n      sload\n      swap1\n      0x0100\n      exp\n      swap1\n      div\n      0xff\n      and\n        /* \"tic_toc_test.sol\":2026:2046  board[position] == 0 */\n      0xff\n      and\n      eq\n        /* \"tic_toc_test.sol\":2018:2073  require(board[position] == 0, \"Position already taken\") */\n      tag_35\n      jumpi\n      mload(0x40)\n      0x08c379a000000000000000000000000000000000000000000000000000000000\n      dup2\n      mstore\n      0x04\n      add\n      tag_36\n      swap1\n      tag_37\n      jump\t// in\n    tag_36:\n      mload(0x40)\n      dup1\n      swap2\n      sub\n      swap1\n      revert\n    tag_35:\n        /* \"tic_toc_test.sol\":2102:2115  currentPlayer */\n      0x03\n      0x00\n      swap1\n      sload\n      swap1\n      0x0100\n      exp\n      swap1\n      div\n      0xff\n      and\n        /* \"tic_toc_test.sol\":2084:2089  board */\n      0x02\n        /* \"tic_toc_test.sol\":2090:2098  position */\n      dup3\n        /* \"tic_toc_test.sol\":2084:2099  board[position] */\n      0xff\n      and\n      0x09\n      dup2\n      lt\n      tag_38\n      jumpi\n      tag_39\n      tag_33\n      jump\t// in\n    tag_39:\n    tag_38:\n      0x20\n      swap2\n      dup3\n      dup3\n      div\n      add\n      swap2\n      swap1\n      mod\n        /* \"tic_toc_test.sol\":2084:2115  board[position] = currentPlayer */\n      0x0100\n      exp\n      dup2\n      sload\n      dup2\n      0xff\n      mul\n      not\n      and\n      swap1\n      dup4\n      0xff\n      and\n      mul\n      or\n      swap1\n      sstore\n      pop\n        /* \"tic_toc_test.sol\":2158:2159  1 */\n      0x01\n        /* \"tic_toc_test.sol\":2141:2154  currentPlayer */\n      0x03\n      0x00\n      swap1\n      sload\n      swap1\n      0x0100\n      exp\n      swap1\n      div\n      0xff\n      and\n        /* \"tic_toc_test.sol\":2141:2159  currentPlayer == 1 */\n      0xff\n      and\n      eq\n        /* \"tic_toc_test.sol\":2141:2167  currentPlayer == 1 ? 2 : 1 */\n      tag_41\n      jumpi\n        /* \"tic_toc_test.sol\":2166:2167  1 */\n      0x01\n        /* \"tic_toc_test.sol\":2141:2167  currentPlayer == 1 ? 2 : 1 */\n      jump(tag_42)\n    tag_41:\n        /* \"tic_toc_test.sol\":2162:2163  2 */\n      0x02\n        /* \"tic_toc_test.sol\":2141:2167  currentPlayer == 1 ? 2 : 1 */\n    tag_42:\n        /* \"tic_toc_test.sol\":2125:2138  currentPlayer */\n      0x03\n      0x00\n        /* \"tic_toc_test.sol\":2125:2167  currentPlayer = currentPlayer == 1 ? 2 : 1 */\n      0x0100\n      exp\n      dup2\n      sload\n      dup2\n      0xff\n      mul\n      not\n      and\n      swap1\n      dup4\n      0xff\n      and\n      mul\n      or\n      swap1\n      sstore\n      pop\n        /* \"tic_toc_test.sol\":2215:2238  isWinner(currentPlayer) */\n      tag_43\n        /* \"tic_toc_test.sol\":2224:2237  currentPlayer */\n      0x03\n      0x00\n      swap1\n      sload\n      swap1\n      0x0100\n      exp\n      swap1\n      div\n      0xff\n      and\n        /* \"tic_toc_test.sol\":2215:2223  isWinner */\n      tag_44\n        /* \"tic_toc_test.sol\":2215:2238  isWinner(currentPlayer) */\n      jump\t// in\n    tag_43:\n        /* \"tic_toc_test.sol\":2211:2431  if (isWinner(currentPlayer)) {... */\n      iszero\n      tag_45\n      jumpi\n        /* \"tic_toc_test.sol\":2266:2270  true */\n      0x01\n        /* \"tic_toc_test.sol\":2254:2263  gameEnded */\n      0x03\n      0x01\n        /* \"tic_toc_test.sol\":2254:2270  gameEnded = true */\n      0x0100\n      exp\n      dup2\n      sload\n      dup2\n      0xff\n      mul\n      not\n      and\n      swap1\n      dup4\n      iszero\n      iszero\n      mul\n      or\n      swap1\n      sstore\n      pop\n        /* \"tic_toc_test.sol\":2211:2431  if (isWinner(currentPlayer)) {... */\n      jump(tag_46)\n    tag_45:\n        /* \"tic_toc_test.sol\":2339:2352  isBoardFull() */\n      tag_47\n        /* \"tic_toc_test.sol\":2339:2350  isBoardFull */\n      tag_48\n        /* \"tic_toc_test.sol\":2339:2352  isBoardFull() */\n      jump\t// in\n    tag_47:\n        /* \"tic_toc_test.sol\":2335:2431  if (isBoardFull()) {... */\n      iszero\n      tag_49\n      jumpi\n        /* \"tic_toc_test.sol\":2380:2384  true */\n      0x01\n        /* \"tic_toc_test.sol\":2368:2377  gameEnded */\n      0x03\n      0x01\n        /* \"tic_toc_test.sol\":2368:2384  gameEnded = true */\n      0x0100\n      exp\n      dup2\n      sload\n      dup2\n      0xff\n      mul\n      not\n      and\n      swap1\n      dup4\n      iszero\n      iszero\n      mul\n      or\n      swap1\n      sstore\n      pop\n        /* \"tic_toc_test.sol\":2335:2431  if (isBoardFull()) {... */\n    tag_49:\n        /* \"tic_toc_test.sol\":2211:2431  if (isWinner(currentPlayer)) {... */\n    tag_46:\n        /* \"tic_toc_test.sol\":1753:2437  function makeMove(uint8 position) external {... */\n      pop\n      jump\t// out\n        /* \"tic_toc_test.sol\":2503:2585  function isWinner(uint8 player) private view returns (bool) {... */\n    tag_44:\n        /* \"tic_toc_test.sol\":2557:2561  bool */\n      0x00\n        /* \"tic_toc_test.sol\":2503:2585  function isWinner(uint8 player) private view returns (bool) {... */\n      swap2\n      swap1\n      pop\n      jump\t// out\n        /* \"tic_toc_test.sol\":2591:2664  function isBoardFull() private view returns (bool) {... */\n    tag_48:\n        /* \"tic_toc_test.sol\":2636:2640  bool */\n      0x00\n        /* \"tic_toc_test.sol\":2591:2664  function isBoardFull() private view returns (bool) {... */\n      swap1\n      jump\t// out\n        /* \"#utility.yul\":88:205   */\n    tag_53:\n        /* \"#utility.yul\":197:198   */\n      0x00\n        /* \"#utility.yul\":194:195   */\n      dup1\n        /* \"#utility.yul\":187:199   */\n      revert\n        /* \"#utility.yul\":334:420   */\n    tag_55:\n        /* \"#utility.yul\":369:376   */\n      0x00\n        /* \"#utility.yul\":409:413   */\n      0xff\n        /* \"#utility.yul\":402:407   */\n      dup3\n        /* \"#utility.yul\":398:414   */\n      and\n        /* \"#utility.yul\":387:414   */\n      swap1\n      pop\n        /* \"#utility.yul\":334:420   */\n      swap2\n      swap1\n      pop\n      jump\t// out\n        /* \"#utility.yul\":426:544   */\n    tag_56:\n        /* \"#utility.yul\":497:519   */\n      tag_77\n        /* \"#utility.yul\":513:518   */\n      dup2\n        /* \"#utility.yul\":497:519   */\n      tag_55\n      jump\t// in\n    tag_77:\n        /* \"#utility.yul\":490:495   */\n      dup2\n        /* \"#utility.yul\":487:520   */\n      eq\n        /* \"#utility.yul\":477:538   */\n      tag_78\n      jumpi\n        /* \"#utility.yul\":534:535   */\n      0x00\n        /* \"#utility.yul\":531:532   */\n      dup1\n        /* \"#utility.yul\":524:536   */\n      revert\n        /* \"#utility.yul\":477:538   */\n    tag_78:\n        /* \"#utility.yul\":426:544   */\n      pop\n      jump\t// out\n        /* \"#utility.yul\":550:685   */\n    tag_57:\n        /* \"#utility.yul\":594:599   */\n      0x00\n        /* \"#utility.yul\":632:638   */\n      dup2\n        /* \"#utility.yul\":619:639   */\n      calldataload\n        /* \"#utility.yul\":610:639   */\n      swap1\n      pop\n        /* \"#utility.yul\":648:679   */\n      tag_80\n        /* \"#utility.yul\":673:678   */\n      dup2\n        /* \"#utility.yul\":648:679   */\n      tag_56\n      jump\t// in\n    tag_80:\n        /* \"#utility.yul\":550:685   */\n      swap3\n      swap2\n      pop\n      pop\n      jump\t// out\n        /* \"#utility.yul\":691:1016   */\n    tag_9:\n        /* \"#utility.yul\":748:754   */\n      0x00\n        /* \"#utility.yul\":797:799   */\n      0x20\n        /* \"#utility.yul\":785:794   */\n      dup3\n        /* \"#utility.yul\":776:783   */\n      dup5\n        /* \"#utility.yul\":772:795   */\n      sub\n        /* \"#utility.yul\":768:800   */\n      slt\n        /* \"#utility.yul\":765:884   */\n      iszero\n      tag_82\n      jumpi\n        /* \"#utility.yul\":803:882   */\n      tag_83\n      tag_53\n      jump\t// in\n    tag_83:\n        /* \"#utility.yul\":765:884   */\n    tag_82:\n        /* \"#utility.yul\":923:924   */\n      0x00\n        /* \"#utility.yul\":948:999   */\n      tag_84\n        /* \"#utility.yul\":991:998   */\n      dup5\n        /* \"#utility.yul\":982:988   */\n      dup3\n        /* \"#utility.yul\":971:980   */\n      dup6\n        /* \"#utility.yul\":967:989   */\n      add\n        /* \"#utility.yul\":948:999   */\n      tag_57\n      jump\t// in\n    tag_84:\n        /* \"#utility.yul\":938:999   */\n      swap2\n      pop\n        /* \"#utility.yul\":894:1009   */\n      pop\n        /* \"#utility.yul\":691:1016   */\n      swap3\n      swap2\n      pop\n      pop\n      jump\t// out\n        /* \"#utility.yul\":1022:1191   */\n    tag_58:\n        /* \"#utility.yul\":1106:1117   */\n      0x00\n        /* \"#utility.yul\":1140:1146   */\n      dup3\n        /* \"#utility.yul\":1135:1138   */\n      dup3\n        /* \"#utility.yul\":1128:1147   */\n      mstore\n        /* \"#utility.yul\":1180:1184   */\n      0x20\n        /* \"#utility.yul\":1175:1178   */\n      dup3\n        /* \"#utility.yul\":1171:1185   */\n      add\n        /* \"#utility.yul\":1156:1185   */\n      swap1\n      pop\n        /* \"#utility.yul\":1022:1191   */\n      swap3\n      swap2\n      pop\n      pop\n      jump\t// out\n        /* \"#utility.yul\":1197:1369   */\n    tag_59:\n        /* \"#utility.yul\":1337:1361   */\n      0x47616d652068617320616c726561647920656e64656400000000000000000000\n        /* \"#utility.yul\":1333:1334   */\n      0x00\n        /* \"#utility.yul\":1325:1331   */\n      dup3\n        /* \"#utility.yul\":1321:1335   */\n      add\n        /* \"#utility.yul\":1314:1362   */\n      mstore\n        /* \"#utility.yul\":1197:1369   */\n      pop\n      jump\t// out\n        /* \"#utility.yul\":1375:1741   */\n    tag_60:\n        /* \"#utility.yul\":1517:1520   */\n      0x00\n        /* \"#utility.yul\":1538:1605   */\n      tag_88\n        /* \"#utility.yul\":1602:1604   */\n      0x16\n        /* \"#utility.yul\":1597:1600   */\n      dup4\n        /* \"#utility.yul\":1538:1605   */\n      tag_58\n      jump\t// in\n    tag_88:\n        /* \"#utility.yul\":1531:1605   */\n      swap2\n      pop\n        /* \"#utility.yul\":1614:1707   */\n      tag_89\n        /* \"#utility.yul\":1703:1706   */\n      dup3\n        /* \"#utility.yul\":1614:1707   */\n      tag_59\n      jump\t// in\n    tag_89:\n        /* \"#utility.yul\":1732:1734   */\n      0x20\n        /* \"#utility.yul\":1727:1730   */\n      dup3\n        /* \"#utility.yul\":1723:1735   */\n      add\n        /* \"#utility.yul\":1716:1735   */\n      swap1\n      pop\n        /* \"#utility.yul\":1375:1741   */\n      swap2\n      swap1\n      pop\n      jump\t// out\n        /* \"#utility.yul\":1747:2166   */\n    tag_14:\n        /* \"#utility.yul\":1913:1917   */\n      0x00\n        /* \"#utility.yul\":1951:1953   */\n      0x20\n        /* \"#utility.yul\":1940:1949   */\n      dup3\n        /* \"#utility.yul\":1936:1954   */\n      add\n        /* \"#utility.yul\":1928:1954   */\n      swap1\n      pop\n        /* \"#utility.yul\":2000:2009   */\n      dup2\n        /* \"#utility.yul\":1994:1998   */\n      dup2\n        /* \"#utility.yul\":1990:2010   */\n      sub\n        /* \"#utility.yul\":1986:1987   */\n      0x00\n        /* \"#utility.yul\":1975:1984   */\n      dup4\n        /* \"#utility.yul\":1971:1988   */\n      add\n        /* \"#utility.yul\":1964:2011   */\n      mstore\n        /* \"#utility.yul\":2028:2159   */\n      tag_91\n        /* \"#utility.yul\":2154:2158   */\n      dup2\n        /* \"#utility.yul\":2028:2159   */\n      tag_60\n      jump\t// in\n    tag_91:\n        /* \"#utility.yul\":2020:2159   */\n      swap1\n      pop\n        /* \"#utility.yul\":1747:2166   */\n      swap2\n      swap1\n      pop\n      jump\t// out\n        /* \"#utility.yul\":2172:2335   */\n    tag_61:\n        /* \"#utility.yul\":2312:2327   */\n      0x496e636f72726563742066656500000000000000000000000000000000000000\n        /* \"#utility.yul\":2308:2309   */\n      0x00\n        /* \"#utility.yul\":2300:2306   */\n      dup3\n        /* \"#utility.yul\":2296:2310   */\n      add\n        /* \"#utility.yul\":2289:2328   */\n      mstore\n        /* \"#utility.yul\":2172:2335   */\n      pop\n      jump\t// out\n        /* \"#utility.yul\":2341:2707   */\n    tag_62:\n        /* \"#utility.yul\":2483:2486   */\n      0x00\n        /* \"#utility.yul\":2504:2571   */\n      tag_94\n        /* \"#utility.yul\":2568:2570   */\n      0x0d\n        /* \"#utility.yul\":2563:2566   */\n      dup4\n        /* \"#utility.yul\":2504:2571   */\n      tag_58\n      jump\t// in\n    tag_94:\n        /* \"#utility.yul\":2497:2571   */\n      swap2\n      pop\n        /* \"#utility.yul\":2580:2673   */\n      tag_95\n        /* \"#utility.yul\":2669:2672   */\n      dup3\n        /* \"#utility.yul\":2580:2673   */\n      tag_61\n      jump\t// in\n    tag_95:\n        /* \"#utility.yul\":2698:2700   */\n      0x20\n        /* \"#utility.yul\":2693:2696   */\n      dup3\n        /* \"#utility.yul\":2689:2701   */\n      add\n        /* \"#utility.yul\":2682:2701   */\n      swap1\n      pop\n        /* \"#utility.yul\":2341:2707   */\n      swap2\n      swap1\n      pop\n      jump\t// out\n        /* \"#utility.yul\":2713:3132   */\n    tag_17:\n        /* \"#utility.yul\":2879:2883   */\n      0x00\n        /* \"#utility.yul\":2917:2919   */\n      0x20\n        /* \"#utility.yul\":2906:2915   */\n      dup3\n        /* \"#utility.yul\":2902:2920   */\n      add\n        /* \"#utility.yul\":2894:2920   */\n      swap1\n      pop\n        /* \"#utility.yul\":2966:2975   */\n      dup2\n        /* \"#utility.yul\":2960:2964   */\n      dup2\n        /* \"#utility.yul\":2956:2976   */\n      sub\n        /* \"#utility.yul\":2952:2953   */\n      0x00\n        /* \"#utility.yul\":2941:2950   */\n      dup4\n        /* \"#utility.yul\":2937:2954   */\n      add\n        /* \"#utility.yul\":2930:2977   */\n      mstore\n        /* \"#utility.yul\":2994:3125   */\n      tag_97\n        /* \"#utility.yul\":3120:3124   */\n      dup2\n        /* \"#utility.yul\":2994:3125   */\n      tag_62\n      jump\t// in\n    tag_97:\n        /* \"#utility.yul\":2986:3125   */\n      swap1\n      pop\n        /* \"#utility.yul\":2713:3132   */\n      swap2\n      swap1\n      pop\n      jump\t// out\n        /* \"#utility.yul\":3138:3300   */\n    tag_63:\n        /* \"#utility.yul\":3278:3292   */\n      0x47616d652069732066756c6c0000000000000000000000000000000000000000\n        /* \"#utility.yul\":3274:3275   */\n      0x00\n        /* \"#utility.yul\":3266:3272   */\n      dup3\n        /* \"#utility.yul\":3262:3276   */\n      add\n        /* \"#utility.yul\":3255:3293   */\n      mstore\n        /* \"#utility.yul\":3138:3300   */\n      pop\n      jump\t// out\n        /* \"#utility.yul\":3306:3672   */\n    tag_64:\n        /* \"#utility.yul\":3448:3451   */\n      0x00\n        /* \"#utility.yul\":3469:3536   */\n      tag_100\n        /* \"#utility.yul\":3533:3535   */\n      0x0c\n        /* \"#utility.yul\":3528:3531   */\n      dup4\n        /* \"#utility.yul\":3469:3536   */\n      tag_58\n      jump\t// in\n    tag_100:\n        /* \"#utility.yul\":3462:3536   */\n      swap2\n      pop\n        /* \"#utility.yul\":3545:3638   */\n      tag_101\n        /* \"#utility.yul\":3634:3637   */\n      dup3\n        /* \"#utility.yul\":3545:3638   */\n      tag_63\n      jump\t// in\n    tag_101:\n        /* \"#utility.yul\":3663:3665   */\n      0x20\n        /* \"#utility.yul\":3658:3661   */\n      dup3\n        /* \"#utility.yul\":3654:3666   */\n      add\n        /* \"#utility.yul\":3647:3666   */\n      swap1\n      pop\n        /* \"#utility.yul\":3306:3672   */\n      swap2\n      swap1\n      pop\n      jump\t// out\n        /* \"#utility.yul\":3678:4097   */\n    tag_22:\n        /* \"#utility.yul\":3844:3848   */\n      0x00\n        /* \"#utility.yul\":3882:3884   */\n      0x20\n        /* \"#utility.yul\":3871:3880   */\n      dup3\n        /* \"#utility.yul\":3867:3885   */\n      add\n        /* \"#utility.yul\":3859:3885   */\n      swap1\n      pop\n        /* \"#utility.yul\":3931:3940   */\n      dup2\n        /* \"#utility.yul\":3925:3929   */\n      dup2\n        /* \"#utility.yul\":3921:3941   */\n      sub\n        /* \"#utility.yul\":3917:3918   */\n      0x00\n        /* \"#utility.yul\":3906:3915   */\n      dup4\n        /* \"#utility.yul\":3902:3919   */\n      add\n        /* \"#utility.yul\":3895:3942   */\n      mstore\n        /* \"#utility.yul\":3959:4090   */\n      tag_103\n        /* \"#utility.yul\":4085:4089   */\n      dup2\n        /* \"#utility.yul\":3959:4090   */\n      tag_64\n      jump\t// in\n    tag_103:\n        /* \"#utility.yul\":3951:4090   */\n      swap1\n      pop\n        /* \"#utility.yul\":3678:4097   */\n      swap2\n      swap1\n      pop\n      jump\t// out\n        /* \"#utility.yul\":4103:4269   */\n    tag_65:\n        /* \"#utility.yul\":4243:4261   */\n      0x5265656e7472616e637920477561726400000000000000000000000000000000\n        /* \"#utility.yul\":4239:4240   */\n      0x00\n        /* \"#utility.yul\":4231:4237   */\n      dup3\n        /* \"#utility.yul\":4227:4241   */\n      add\n        /* \"#utility.yul\":4220:4262   */\n      mstore\n        /* \"#utility.yul\":4103:4269   */\n      pop\n      jump\t// out\n        /* \"#utility.yul\":4275:4641   */\n    tag_66:\n        /* \"#utility.yul\":4417:4420   */\n      0x00\n        /* \"#utility.yul\":4438:4505   */\n      tag_106\n        /* \"#utility.yul\":4502:4504   */\n      0x10\n        /* \"#utility.yul\":4497:4500   */\n      dup4\n        /* \"#utility.yul\":4438:4505   */\n      tag_58\n      jump\t// in\n    tag_106:\n        /* \"#utility.yul\":4431:4505   */\n      swap2\n      pop\n        /* \"#utility.yul\":4514:4607   */\n      tag_107\n        /* \"#utility.yul\":4603:4606   */\n      dup3\n        /* \"#utility.yul\":4514:4607   */\n      tag_65\n      jump\t// in\n    tag_107:\n        /* \"#utility.yul\":4632:4634   */\n      0x20\n        /* \"#utility.yul\":4627:4630   */\n      dup3\n        /* \"#utility.yul\":4623:4635   */\n      add\n        /* \"#utility.yul\":4616:4635   */\n      swap1\n      pop\n        /* \"#utility.yul\":4275:4641   */\n      swap2\n      swap1\n      pop\n      jump\t// out\n        /* \"#utility.yul\":4647:5066   */\n    tag_26:\n        /* \"#utility.yul\":4813:4817   */\n      0x00\n        /* \"#utility.yul\":4851:4853   */\n      0x20\n        /* \"#utility.yul\":4840:4849   */\n      dup3\n        /* \"#utility.yul\":4836:4854   */\n      add\n        /* \"#utility.yul\":4828:4854   */\n      swap1\n      pop\n        /* \"#utility.yul\":4900:4909   */\n      dup2\n        /* \"#utility.yul\":4894:4898   */\n      dup2\n        /* \"#utility.yul\":4890:4910   */\n      sub\n        /* \"#utility.yul\":4886:4887   */\n      0x00\n        /* \"#utility.yul\":4875:4884   */\n      dup4\n        /* \"#utility.yul\":4871:4888   */\n      add\n        /* \"#utility.yul\":4864:4911   */\n      mstore\n        /* \"#utility.yul\":4928:5059   */\n      tag_109\n        /* \"#utility.yul\":5054:5058   */\n      dup2\n        /* \"#utility.yul\":4928:5059   */\n      tag_66\n      jump\t// in\n    tag_109:\n        /* \"#utility.yul\":4920:5059   */\n      swap1\n      pop\n        /* \"#utility.yul\":4647:5066   */\n      swap2\n      swap1\n      pop\n      jump\t// out\n        /* \"#utility.yul\":5072:5235   */\n    tag_67:\n        /* \"#utility.yul\":5212:5227   */\n      0x4e6f7420796f7572207475726e00000000000000000000000000000000000000\n        /* \"#utility.yul\":5208:5209   */\n      0x00\n        /* \"#utility.yul\":5200:5206   */\n      dup3\n        /* \"#utility.yul\":5196:5210   */\n      add\n        /* \"#utility.yul\":5189:5228   */\n      mstore\n        /* \"#utility.yul\":5072:5235   */\n      pop\n      jump\t// out\n        /* \"#utility.yul\":5241:5607   */\n    tag_68:\n        /* \"#utility.yul\":5383:5386   */\n      0x00\n        /* \"#utility.yul\":5404:5471   */\n      tag_112\n        /* \"#utility.yul\":5468:5470   */\n      0x0d\n        /* \"#utility.yul\":5463:5466   */\n      dup4\n        /* \"#utility.yul\":5404:5471   */\n      tag_58\n      jump\t// in\n    tag_112:\n        /* \"#utility.yul\":5397:5471   */\n      swap2\n      pop\n        /* \"#utility.yul\":5480:5573   */\n      tag_113\n        /* \"#utility.yul\":5569:5572   */\n      dup3\n        /* \"#utility.yul\":5480:5573   */\n      tag_67\n      jump\t// in\n    tag_113:\n        /* \"#utility.yul\":5598:5600   */\n      0x20\n        /* \"#utility.yul\":5593:5596   */\n      dup3\n        /* \"#utility.yul\":5589:5601   */\n      add\n        /* \"#utility.yul\":5582:5601   */\n      swap1\n      pop\n        /* \"#utility.yul\":5241:5607   */\n      swap2\n      swap1\n      pop\n      jump\t// out\n        /* \"#utility.yul\":5613:6032   */\n    tag_30:\n        /* \"#utility.yul\":5779:5783   */\n      0x00\n        /* \"#utility.yul\":5817:5819   */\n      0x20\n        /* \"#utility.yul\":5806:5815   */\n      dup3\n        /* \"#utility.yul\":5802:5820   */\n      add\n        /* \"#utility.yul\":5794:5820   */\n      swap1\n      pop\n        /* \"#utility.yul\":5866:5875   */\n      dup2\n        /* \"#utility.yul\":5860:5864   */\n      dup2\n        /* \"#utility.yul\":5856:5876   */\n      sub\n        /* \"#utility.yul\":5852:5853   */\n      0x00\n        /* \"#utility.yul\":5841:5850   */\n      dup4\n        /* \"#utility.yul\":5837:5854   */\n      add\n        /* \"#utility.yul\":5830:5877   */\n      mstore\n        /* \"#utility.yul\":5894:6025   */\n      tag_115\n        /* \"#utility.yul\":6020:6024   */\n      dup2\n        /* \"#utility.yul\":5894:6025   */\n      tag_68\n      jump\t// in\n    tag_115:\n        /* \"#utility.yul\":5886:6025   */\n      swap1\n      pop\n        /* \"#utility.yul\":5613:6032   */\n      swap2\n      swap1\n      pop\n      jump\t// out\n        /* \"#utility.yul\":6038:6218   */\n    tag_33:\n        /* \"#utility.yul\":6086:6163   */\n      0x4e487b7100000000000000000000000000000000000000000000000000000000\n        /* \"#utility.yul\":6083:6084   */\n      0x00\n        /* \"#utility.yul\":6076:6164   */\n      mstore\n        /* \"#utility.yul\":6183:6187   */\n      0x32\n        /* \"#utility.yul\":6180:6181   */\n      0x04\n        /* \"#utility.yul\":6173:6188   */\n      mstore\n        /* \"#utility.yul\":6207:6211   */\n      0x24\n        /* \"#utility.yul\":6204:6205   */\n      0x00\n        /* \"#utility.yul\":6197:6212   */\n      revert\n        /* \"#utility.yul\":6224:6396   */\n    tag_69:\n        /* \"#utility.yul\":6364:6388   */\n      0x506f736974696f6e20616c72656164792074616b656e00000000000000000000\n        /* \"#utility.yul\":6360:6361   */\n      0x00\n        /* \"#utility.yul\":6352:6358   */\n      dup3\n        /* \"#utility.yul\":6348:6362   */\n      add\n        /* \"#utility.yul\":6341:6389   */\n      mstore\n        /* \"#utility.yul\":6224:6396   */\n      pop\n      jump\t// out\n        /* \"#utility.yul\":6402:6768   */\n    tag_70:\n        /* \"#utility.yul\":6544:6547   */\n      0x00\n        /* \"#utility.yul\":6565:6632   */\n      tag_119\n        /* \"#utility.yul\":6629:6631   */\n      0x16\n        /* \"#utility.yul\":6624:6627   */\n      dup4\n        /* \"#utility.yul\":6565:6632   */\n      tag_58\n      jump\t// in\n    tag_119:\n        /* \"#utility.yul\":6558:6632   */\n      swap2\n      pop\n        /* \"#utility.yul\":6641:6734   */\n      tag_120\n        /* \"#utility.yul\":6730:6733   */\n      dup3\n        /* \"#utility.yul\":6641:6734   */\n      tag_69\n      jump\t// in\n    tag_120:\n        /* \"#utility.yul\":6759:6761   */\n      0x20\n        /* \"#utility.yul\":6754:6757   */\n      dup3\n        /* \"#utility.yul\":6750:6762   */\n      add\n        /* \"#utility.yul\":6743:6762   */\n      swap1\n      pop\n        /* \"#utility.yul\":6402:6768   */\n      swap2\n      swap1\n      pop\n      jump\t// out\n        /* \"#utility.yul\":6774:7193   */\n    tag_37:\n        /* \"#utility.yul\":6940:6944   */\n      0x00\n        /* \"#utility.yul\":6978:6980   */\n      0x20\n        /* \"#utility.yul\":6967:6976   */\n      dup3\n        /* \"#utility.yul\":6963:6981   */\n      add\n        /* \"#utility.yul\":6955:6981   */\n      swap1\n      pop\n        /* \"#utility.yul\":7027:7036   */\n      dup2\n        /* \"#utility.yul\":7021:7025   */\n      dup2\n        /* \"#utility.yul\":7017:7037   */\n      sub\n        /* \"#utility.yul\":7013:7014   */\n      0x00\n        /* \"#utility.yul\":7002:7011   */\n      dup4\n        /* \"#utility.yul\":6998:7015   */\n      add\n        /* \"#utility.yul\":6991:7038   */\n      mstore\n        /* \"#utility.yul\":7055:7186   */\n      tag_122\n        /* \"#utility.yul\":7181:7185   */\n      dup2\n        /* \"#utility.yul\":7055:7186   */\n      tag_70\n      jump\t// in\n    tag_122:\n        /* \"#utility.yul\":7047:7186   */\n      swap1\n      pop\n        /* \"#utility.yul\":6774:7193   */\n      swap2\n      swap1\n      pop\n      jump\t// out\n\n    auxdata: 0xa26469706673582212209eaa6b9089dfe4948c20d32057695ec035c949c0b002bcc207aa61fdbb327cac64736f6c634300081a0033\n}\n",
				"bytecode": {
					"linkReferences": {},
					"object": "6080604052348015600e575f80fd5b506040516108f43803806108f48339818101604052810190602e9190606c565b80600481905550506092565b5f80fd5b5f819050919050565b604e81603e565b81146057575f80fd5b50565b5f815190506066816047565b92915050565b5f60208284031215607e57607d603a565b5b5f608984828501605a565b91505092915050565b6108558061009f5f395ff3fe608060405260043610610028575f3560e01c80635c07a4b01461002c578063650271d214610036575b5f80fd5b61003461005e565b005b348015610041575f80fd5b5061005c60048036038101906100579190610547565b61025a565b005b600360019054906101000a900460ff16156100ae576040517f08c379a00000000000000000000000000000000000000000000000000000000081526004016100a5906105cc565b60405180910390fd5b60045434146100f2576040517f08c379a00000000000000000000000000000000000000000000000000000000081526004016100e990610634565b60405180910390fd5b5f73ffffffffffffffffffffffffffffffffffffffff165f8054906101000a900473ffffffffffffffffffffffffffffffffffffffff1673ffffffffffffffffffffffffffffffffffffffff160361018857335f806101000a81548173ffffffffffffffffffffffffffffffffffffffff021916908373ffffffffffffffffffffffffffffffffffffffff160217905550610258565b5f73ffffffffffffffffffffffffffffffffffffffff1660015f9054906101000a900473ffffffffffffffffffffffffffffffffffffffff1673ffffffffffffffffffffffffffffffffffffffff1614610217576040517f08c379a000000000000000000000000000000000000000000000000000000000815260040161020e9061069c565b60405180910390fd5b3360015f6101000a81548173ffffffffffffffffffffffffffffffffffffffff021916908373ffffffffffffffffffffffffffffffffffffffff1602179055505b565b60055f9054906101000a900460ff16156102a9576040517f08c379a00000000000000000000000000000000000000000000000000000000081526004016102a090610704565b60405180910390fd5b600160055f6101000a81548160ff0219169083151502179055503373ffffffffffffffffffffffffffffffffffffffff165f8054906101000a900473ffffffffffffffffffffffffffffffffffffffff1673ffffffffffffffffffffffffffffffffffffffff16148061036857503373ffffffffffffffffffffffffffffffffffffffff1660015f9054906101000a900473ffffffffffffffffffffffffffffffffffffffff1673ffffffffffffffffffffffffffffffffffffffff16145b6103a7576040517f08c379a000000000000000000000000000000000000000000000000000000000815260040161039e9061076c565b60405180910390fd5b5f60028260ff16600981106103bf576103be61078a565b5b602091828204019190069054906101000a900460ff1660ff1614610418576040517f08c379a000000000000000000000000000000000000000000000000000000000815260040161040f90610801565b60405180910390fd5b60035f9054906101000a900460ff1660028260ff166009811061043e5761043d61078a565b5b602091828204019190066101000a81548160ff021916908360ff160217905550600160035f9054906101000a900460ff1660ff161461047e576001610481565b60025b60035f6101000a81548160ff021916908360ff1602179055506104b160035f9054906101000a900460ff16610503565b156104d6576001600360016101000a81548160ff021916908315150217905550610500565b6104de610509565b156104ff576001600360016101000a81548160ff0219169083151502179055505b5b50565b5f919050565b5f90565b5f80fd5b5f60ff82169050919050565b61052681610511565b8114610530575f80fd5b50565b5f813590506105418161051d565b92915050565b5f6020828403121561055c5761055b61050d565b5b5f61056984828501610533565b91505092915050565b5f82825260208201905092915050565b7f47616d652068617320616c726561647920656e646564000000000000000000005f82015250565b5f6105b6601683610572565b91506105c182610582565b602082019050919050565b5f6020820190508181035f8301526105e3816105aa565b9050919050565b7f496e636f727265637420666565000000000000000000000000000000000000005f82015250565b5f61061e600d83610572565b9150610629826105ea565b602082019050919050565b5f6020820190508181035f83015261064b81610612565b9050919050565b7f47616d652069732066756c6c00000000000000000000000000000000000000005f82015250565b5f610686600c83610572565b915061069182610652565b602082019050919050565b5f6020820190508181035f8301526106b38161067a565b9050919050565b7f5265656e7472616e6379204775617264000000000000000000000000000000005f82015250565b5f6106ee601083610572565b91506106f9826106ba565b602082019050919050565b5f6020820190508181035f83015261071b816106e2565b9050919050565b7f4e6f7420796f7572207475726e000000000000000000000000000000000000005f82015250565b5f610756600d83610572565b915061076182610722565b602082019050919050565b5f6020820190508181035f8301526107838161074a565b9050919050565b7f4e487b71000000000000000000000000000000000000000000000000000000005f52603260045260245ffd5b7f506f736974696f6e20616c72656164792074616b656e000000000000000000005f82015250565b5f6107eb601683610572565b91506107f6826107b7565b602082019050919050565b5f6020820190508181035f830152610818816107df565b905091905056fea26469706673582212209eaa6b9089dfe4948c20d32057695ec035c949c0b002bcc207aa61fdbb327cac64736f6c634300081a0033",
					"opcodes": "PUSH1 0x80 PUSH1 0x40 MSTORE CALLVALUE DUP1 ISZERO PUSH1 0xE JUMPI PUSH0 DUP1 REVERT JUMPDEST POP PUSH1 0x40 MLOAD PUSH2 0x8F4 CODESIZE SUB DUP1 PUSH2 0x8F4 DUP4 CODECOPY DUP2 DUP2 ADD PUSH1 0x40 MSTORE DUP2 ADD SWAP1 PUSH1 0x2E SWAP2 SWAP1 PUSH1 0x6C JUMP JUMPDEST DUP1 PUSH1 0x4 DUP2 SWAP1 SSTORE POP POP PUSH1 0x92 JUMP JUMPDEST PUSH0 DUP1 REVERT JUMPDEST PUSH0 DUP2 SWAP1 POP SWAP2 SWAP1 POP JUMP JUMPDEST PUSH1 0x4E DUP2 PUSH1 0x3E JUMP JUMPDEST DUP2 EQ PUSH1 0x57 JUMPI PUSH0 DUP1 REVERT JUMPDEST POP JUMP JUMPDEST PUSH0 DUP2 MLOAD SWAP1 POP PUSH1 0x66 DUP2 PUSH1 0x47 JUMP JUMPDEST SWAP3 SWAP2 POP POP JUMP JUMPDEST PUSH0 PUSH1 0x20 DUP3 DUP5 SUB SLT ISZERO PUSH1 0x7E JUMPI PUSH1 0x7D PUSH1 0x3A JUMP JUMPDEST JUMPDEST PUSH0 PUSH1 0x89 DUP5 DUP3 DUP6 ADD PUSH1 0x5A JUMP JUMPDEST SWAP2 POP POP SWAP3 SWAP2 POP POP JUMP JUMPDEST PUSH2 0x855 DUP1 PUSH2 0x9F PUSH0 CODECOPY PUSH0 RETURN INVALID PUSH1 0x80 PUSH1 0x40 MSTORE PUSH1 0x4 CALLDATASIZE LT PUSH2 0x28 JUMPI PUSH0 CALLDATALOAD PUSH1 0xE0 SHR DUP1 PUSH4 0x5C07A4B0 EQ PUSH2 0x2C JUMPI DUP1 PUSH4 0x650271D2 EQ PUSH2 0x36 JUMPI JUMPDEST PUSH0 DUP1 REVERT JUMPDEST PUSH2 0x34 PUSH2 0x5E JUMP JUMPDEST STOP JUMPDEST CALLVALUE DUP1 ISZERO PUSH2 0x41 JUMPI PUSH0 DUP1 REVERT JUMPDEST POP PUSH2 0x5C PUSH1 0x4 DUP1 CALLDATASIZE SUB DUP2 ADD SWAP1 PUSH2 0x57 SWAP2 SWAP1 PUSH2 0x547 JUMP JUMPDEST PUSH2 0x25A JUMP JUMPDEST STOP JUMPDEST PUSH1 0x3 PUSH1 0x1 SWAP1 SLOAD SWAP1 PUSH2 0x100 EXP SWAP1 DIV PUSH1 0xFF AND ISZERO PUSH2 0xAE JUMPI PUSH1 0x40 MLOAD PUSH32 0x8C379A000000000000000000000000000000000000000000000000000000000 DUP2 MSTORE PUSH1 0x4 ADD PUSH2 0xA5 SWAP1 PUSH2 0x5CC JUMP JUMPDEST PUSH1 0x40 MLOAD DUP1 SWAP2 SUB SWAP1 REVERT JUMPDEST PUSH1 0x4 SLOAD CALLVALUE EQ PUSH2 0xF2 JUMPI PUSH1 0x40 MLOAD PUSH32 0x8C379A000000000000000000000000000000000000000000000000000000000 DUP2 MSTORE PUSH1 0x4 ADD PUSH2 0xE9 SWAP1 PUSH2 0x634 JUMP JUMPDEST PUSH1 0x40 MLOAD DUP1 SWAP2 SUB SWAP1 REVERT JUMPDEST PUSH0 PUSH20 0xFFFFFFFFFFFFFFFFFFFFFFFFFFFFFFFFFFFFFFFF AND PUSH0 DUP1 SLOAD SWAP1 PUSH2 0x100 EXP SWAP1 DIV PUSH20 0xFFFFFFFFFFFFFFFFFFFFFFFFFFFFFFFFFFFFFFFF AND PUSH20 0xFFFFFFFFFFFFFFFFFFFFFFFFFFFFFFFFFFFFFFFF AND SUB PUSH2 0x188 JUMPI CALLER PUSH0 DUP1 PUSH2 0x100 EXP DUP2 SLOAD DUP2 PUSH20 0xFFFFFFFFFFFFFFFFFFFFFFFFFFFFFFFFFFFFFFFF MUL NOT AND SWAP1 DUP4 PUSH20 0xFFFFFFFFFFFFFFFFFFFFFFFFFFFFFFFFFFFFFFFF AND MUL OR SWAP1 SSTORE POP PUSH2 0x258 JUMP JUMPDEST PUSH0 PUSH20 0xFFFFFFFFFFFFFFFFFFFFFFFFFFFFFFFFFFFFFFFF AND PUSH1 0x1 PUSH0 SWAP1 SLOAD SWAP1 PUSH2 0x100 EXP SWAP1 DIV PUSH20 0xFFFFFFFFFFFFFFFFFFFFFFFFFFFFFFFFFFFFFFFF AND PUSH20 0xFFFFFFFFFFFFFFFFFFFFFFFFFFFFFFFFFFFFFFFF AND EQ PUSH2 0x217 JUMPI PUSH1 0x40 MLOAD PUSH32 0x8C379A000000000000000000000000000000000000000000000000000000000 DUP2 MSTORE PUSH1 0x4 ADD PUSH2 0x20E SWAP1 PUSH2 0x69C JUMP JUMPDEST PUSH1 0x40 MLOAD DUP1 SWAP2 SUB SWAP1 REVERT JUMPDEST CALLER PUSH1 0x1 PUSH0 PUSH2 0x100 EXP DUP2 SLOAD DUP2 PUSH20 0xFFFFFFFFFFFFFFFFFFFFFFFFFFFFFFFFFFFFFFFF MUL NOT AND SWAP1 DUP4 PUSH20 0xFFFFFFFFFFFFFFFFFFFFFFFFFFFFFFFFFFFFFFFF AND MUL OR SWAP1 SSTORE POP JUMPDEST JUMP JUMPDEST PUSH1 0x5 PUSH0 SWAP1 SLOAD SWAP1 PUSH2 0x100 EXP SWAP1 DIV PUSH1 0xFF AND ISZERO PUSH2 0x2A9 JUMPI PUSH1 0x40 MLOAD PUSH32 0x8C379A000000000000000000000000000000000000000000000000000000000 DUP2 MSTORE PUSH1 0x4 ADD PUSH2 0x2A0 SWAP1 PUSH2 0x704 JUMP JUMPDEST PUSH1 0x40 MLOAD DUP1 SWAP2 SUB SWAP1 REVERT JUMPDEST PUSH1 0x1 PUSH1 0x5 PUSH0 PUSH2 0x100 EXP DUP2 SLOAD DUP2 PUSH1 0xFF MUL NOT AND SWAP1 DUP4 ISZERO ISZERO MUL OR SWAP1 SSTORE POP CALLER PUSH20 0xFFFFFFFFFFFFFFFFFFFFFFFFFFFFFFFFFFFFFFFF AND PUSH0 DUP1 SLOAD SWAP1 PUSH2 0x100 EXP SWAP1 DIV PUSH20 0xFFFFFFFFFFFFFFFFFFFFFFFFFFFFFFFFFFFFFFFF AND PUSH20 0xFFFFFFFFFFFFFFFFFFFFFFFFFFFFFFFFFFFFFFFF AND EQ DUP1 PUSH2 0x368 JUMPI POP CALLER PUSH20 0xFFFFFFFFFFFFFFFFFFFFFFFFFFFFFFFFFFFFFFFF AND PUSH1 0x1 PUSH0 SWAP1 SLOAD SWAP1 PUSH2 0x100 EXP SWAP1 DIV PUSH20 0xFFFFFFFFFFFFFFFFFFFFFFFFFFFFFFFFFFFFFFFF AND PUSH20 0xFFFFFFFFFFFFFFFFFFFFFFFFFFFFFFFFFFFFFFFF AND EQ JUMPDEST PUSH2 0x3A7 JUMPI PUSH1 0x40 MLOAD PUSH32 0x8C379A000000000000000000000000000000000000000000000000000000000 DUP2 MSTORE PUSH1 0x4 ADD PUSH2 0x39E SWAP1 PUSH2 0x76C JUMP JUMPDEST PUSH1 0x40 MLOAD DUP1 SWAP2 SUB SWAP1 REVERT JUMPDEST PUSH0 PUSH1 0x2 DUP3 PUSH1 0xFF AND PUSH1 0x9 DUP2 LT PUSH2 0x3BF JUMPI PUSH2 0x3BE PUSH2 0x78A JUMP JUMPDEST JUMPDEST PUSH1 0x20 SWAP2 DUP3 DUP3 DIV ADD SWAP2 SWAP1 MOD SWAP1 SLOAD SWAP1 PUSH2 0x100 EXP SWAP1 DIV PUSH1 0xFF AND PUSH1 0xFF AND EQ PUSH2 0x418 JUMPI PUSH1 0x40 MLOAD PUSH32 0x8C379A000000000000000000000000000000000000000000000000000000000 DUP2 MSTORE PUSH1 0x4 ADD PUSH2 0x40F SWAP1 PUSH2 0x801 JUMP JUMPDEST PUSH1 0x40 MLOAD DUP1 SWAP2 SUB SWAP1 REVERT JUMPDEST PUSH1 0x3 PUSH0 SWAP1 SLOAD SWAP1 PUSH2 0x100 EXP SWAP1 DIV PUSH1 0xFF AND PUSH1 0x2 DUP3 PUSH1 0xFF AND PUSH1 0x9 DUP2 LT PUSH2 0x43E JUMPI PUSH2 0x43D PUSH2 0x78A JUMP JUMPDEST JUMPDEST PUSH1 0x20 SWAP2 DUP3 DUP3 DIV ADD SWAP2 SWAP1 MOD PUSH2 0x100 EXP DUP2 SLOAD DUP2 PUSH1 0xFF MUL NOT AND SWAP1 DUP4 PUSH1 0xFF AND MUL OR SWAP1 SSTORE POP PUSH1 0x1 PUSH1 0x3 PUSH0 SWAP1 SLOAD SWAP1 PUSH2 0x100 EXP SWAP1 DIV PUSH1 0xFF AND PUSH1 0xFF AND EQ PUSH2 0x47E JUMPI PUSH1 0x1 PUSH2 0x481 JUMP JUMPDEST PUSH1 0x2 JUMPDEST PUSH1 0x3 PUSH0 PUSH2 0x100 EXP DUP2 SLOAD DUP2 PUSH1 0xFF MUL NOT AND SWAP1 DUP4 PUSH1 0xFF AND MUL OR SWAP1 SSTORE POP PUSH2 0x4B1 PUSH1 0x3 PUSH0 SWAP1 SLOAD SWAP1 PUSH2 0x100 EXP SWAP1 DIV PUSH1 0xFF AND PUSH2 0x503 JUMP JUMPDEST ISZERO PUSH2 0x4D6 JUMPI PUSH1 0x1 PUSH1 0x3 PUSH1 0x1 PUSH2 0x100 EXP DUP2 SLOAD DUP2 PUSH1 0xFF MUL NOT AND SWAP1 DUP4 ISZERO ISZERO MUL OR SWAP1 SSTORE POP PUSH2 0x500 JUMP JUMPDEST PUSH2 0x4DE PUSH2 0x509 JUMP JUMPDEST ISZERO PUSH2 0x4FF JUMPI PUSH1 0x1 PUSH1 0x3 PUSH1 0x1 PUSH2 0x100 EXP DUP2 SLOAD DUP2 PUSH1 0xFF MUL NOT AND SWAP1 DUP4 ISZERO ISZERO MUL OR SWAP1 SSTORE POP JUMPDEST JUMPDEST POP JUMP JUMPDEST PUSH0 SWAP2 SWAP1 POP JUMP JUMPDEST PUSH0 SWAP1 JUMP JUMPDEST PUSH0 DUP1 REVERT JUMPDEST PUSH0 PUSH1 0xFF DUP3 AND SWAP1 POP SWAP2 SWAP1 POP JUMP JUMPDEST PUSH2 0x526 DUP2 PUSH2 0x511 JUMP JUMPDEST DUP2 EQ PUSH2 0x530 JUMPI PUSH0 DUP1 REVERT JUMPDEST POP JUMP JUMPDEST PUSH0 DUP2 CALLDATALOAD SWAP1 POP PUSH2 0x541 DUP2 PUSH2 0x51D JUMP JUMPDEST SWAP3 SWAP2 POP POP JUMP JUMPDEST PUSH0 PUSH1 0x20 DUP3 DUP5 SUB SLT ISZERO PUSH2 0x55C JUMPI PUSH2 0x55B PUSH2 0x50D JUMP JUMPDEST JUMPDEST PUSH0 PUSH2 0x569 DUP5 DUP3 DUP6 ADD PUSH2 0x533 JUMP JUMPDEST SWAP2 POP POP SWAP3 SWAP2 POP POP JUMP JUMPDEST PUSH0 DUP3 DUP3 MSTORE PUSH1 0x20 DUP3 ADD SWAP1 POP SWAP3 SWAP2 POP POP JUMP JUMPDEST PUSH32 0x47616D652068617320616C726561647920656E64656400000000000000000000 PUSH0 DUP3 ADD MSTORE POP JUMP JUMPDEST PUSH0 PUSH2 0x5B6 PUSH1 0x16 DUP4 PUSH2 0x572 JUMP JUMPDEST SWAP2 POP PUSH2 0x5C1 DUP3 PUSH2 0x582 JUMP JUMPDEST PUSH1 0x20 DUP3 ADD SWAP1 POP SWAP2 SWAP1 POP JUMP JUMPDEST PUSH0 PUSH1 0x20 DUP3 ADD SWAP1 POP DUP2 DUP2 SUB PUSH0 DUP4 ADD MSTORE PUSH2 0x5E3 DUP2 PUSH2 0x5AA JUMP JUMPDEST SWAP1 POP SWAP2 SWAP1 POP JUMP JUMPDEST PUSH32 0x496E636F72726563742066656500000000000000000000000000000000000000 PUSH0 DUP3 ADD MSTORE POP JUMP JUMPDEST PUSH0 PUSH2 0x61E PUSH1 0xD DUP4 PUSH2 0x572 JUMP JUMPDEST SWAP2 POP PUSH2 0x629 DUP3 PUSH2 0x5EA JUMP JUMPDEST PUSH1 0x20 DUP3 ADD SWAP1 POP SWAP2 SWAP1 POP JUMP JUMPDEST PUSH0 PUSH1 0x20 DUP3 ADD SWAP1 POP DUP2 DUP2 SUB PUSH0 DUP4 ADD MSTORE PUSH2 0x64B DUP2 PUSH2 0x612 JUMP JUMPDEST SWAP1 POP SWAP2 SWAP1 POP JUMP JUMPDEST PUSH32 0x47616D652069732066756C6C0000000000000000000000000000000000000000 PUSH0 DUP3 ADD MSTORE POP JUMP JUMPDEST PUSH0 PUSH2 0x686 PUSH1 0xC DUP4 PUSH2 0x572 JUMP JUMPDEST SWAP2 POP PUSH2 0x691 DUP3 PUSH2 0x652 JUMP JUMPDEST PUSH1 0x20 DUP3 ADD SWAP1 POP SWAP2 SWAP1 POP JUMP JUMPDEST PUSH0 PUSH1 0x20 DUP3 ADD SWAP1 POP DUP2 DUP2 SUB PUSH0 DUP4 ADD MSTORE PUSH2 0x6B3 DUP2 PUSH2 0x67A JUMP JUMPDEST SWAP1 POP SWAP2 SWAP1 POP JUMP JUMPDEST PUSH32 0x5265656E7472616E637920477561726400000000000000000000000000000000 PUSH0 DUP3 ADD MSTORE POP JUMP JUMPDEST PUSH0 PUSH2 0x6EE PUSH1 0x10 DUP4 PUSH2 0x572 JUMP JUMPDEST SWAP2 POP PUSH2 0x6F9 DUP3 PUSH2 0x6BA JUMP JUMPDEST PUSH1 0x20 DUP3 ADD SWAP1 POP SWAP2 SWAP1 POP JUMP JUMPDEST PUSH0 PUSH1 0x20 DUP3 ADD SWAP1 POP DUP2 DUP2 SUB PUSH0 DUP4 ADD MSTORE PUSH2 0x71B DUP2 PUSH2 0x6E2 JUMP JUMPDEST SWAP1 POP SWAP2 SWAP1 POP JUMP JUMPDEST PUSH32 0x4E6F7420796F7572207475726E00000000000000000000000000000000000000 PUSH0 DUP3 ADD MSTORE POP JUMP JUMPDEST PUSH0 PUSH2 0x756 PUSH1 0xD DUP4 PUSH2 0x572 JUMP JUMPDEST SWAP2 POP PUSH2 0x761 DUP3 PUSH2 0x722 JUMP JUMPDEST PUSH1 0x20 DUP3 ADD SWAP1 POP SWAP2 SWAP1 POP JUMP JUMPDEST PUSH0 PUSH1 0x20 DUP3 ADD SWAP1 POP DUP2 DUP2 SUB PUSH0 DUP4 ADD MSTORE PUSH2 0x783 DUP2 PUSH2 0x74A JUMP JUMPDEST SWAP1 POP SWAP2 SWAP1 POP JUMP JUMPDEST PUSH32 0x4E487B7100000000000000000000000000000000000000000000000000000000 PUSH0 MSTORE PUSH1 0x32 PUSH1 0x4 MSTORE PUSH1 0x24 PUSH0 REVERT JUMPDEST PUSH32 0x506F736974696F6E20616C72656164792074616B656E00000000000000000000 PUSH0 DUP3 ADD MSTORE POP JUMP JUMPDEST PUSH0 PUSH2 0x7EB PUSH1 0x16 DUP4 PUSH2 0x572 JUMP JUMPDEST SWAP2 POP PUSH2 0x7F6 DUP3 PUSH2 0x7B7 JUMP JUMPDEST PUSH1 0x20 DUP3 ADD SWAP1 POP SWAP2 SWAP1 POP JUMP JUMPDEST PUSH0 PUSH1 0x20 DUP3 ADD SWAP1 POP DUP2 DUP2 SUB PUSH0 DUP4 ADD MSTORE PUSH2 0x818 DUP2 PUSH2 0x7DF JUMP JUMPDEST SWAP1 POP SWAP2 SWAP1 POP JUMP INVALID LOG2 PUSH5 0x6970667358 0x22 SLT KECCAK256 SWAP15 0xAA PUSH12 0x9089DFE4948C20D32057695E 0xC0 CALLDATALOAD 0xC9 BLOBHASH 0xC0 0xB0 MUL 0xBC 0xC2 SMOD 0xAA PUSH2 0xFDBB ORIGIN PUSH29 0xAC64736F6C634300081A00330000000000000000000000000000000000 "
				},
				"gasEstimates": {
					"creation": {
						"codeDepositCost": "426600",
						"executionCost": "infinite",
						"totalCost": "infinite"
					},
					"external": {
						"makeMove(uint8)": "91731",
						"registerPlayer()": "33026"
					},
					"internal": {
						"isBoardFull()": "14",
						"isWinner(uint8)": "19"
					}
				},
				"methodIdentifiers": {
					"makeMove(uint8)": "650271d2",
					"registerPlayer()": "5c07a4b0"
				}
			},
			"storageLayout": {
				"storage": [
					{
						"astId": 126,
						"contract": "tic_toc_test.sol:TicTacToe",
						"label": "player1",
						"offset": 0,
						"slot": "0",
						"type": "t_address_payable"
					},
					{
						"astId": 128,
						"contract": "tic_toc_test.sol:TicTacToe",
						"label": "player2",
						"offset": 0,
						"slot": "1",
						"type": "t_address_payable"
					},
					{
						"astId": 132,
						"contract": "tic_toc_test.sol:TicTacToe",
						"label": "board",
						"offset": 0,
						"slot": "2",
						"type": "t_array(t_uint8)9_storage"
					},
					{
						"astId": 134,
						"contract": "tic_toc_test.sol:TicTacToe",
						"label": "currentPlayer",
						"offset": 0,
						"slot": "3",
						"type": "t_uint8"
					},
					{
						"astId": 136,
						"contract": "tic_toc_test.sol:TicTacToe",
						"label": "gameEnded",
						"offset": 1,
						"slot": "3",
						"type": "t_bool"
					},
					{
						"astId": 138,
						"contract": "tic_toc_test.sol:TicTacToe",
						"label": "gameFee",
						"offset": 0,
						"slot": "4",
						"type": "t_uint256"
					},
					{
						"astId": 203,
						"contract": "tic_toc_test.sol:TicTacToe",
						"label": "_locked",
						"offset": 0,
						"slot": "5",
						"type": "t_bool"
					}
				],
				"types": {
					"t_address_payable": {
						"encoding": "inplace",
						"label": "address payable",
						"numberOfBytes": "20"
					},
					"t_array(t_uint8)9_storage": {
						"base": "t_uint8",
						"encoding": "inplace",
						"label": "uint8[9]",
						"numberOfBytes": "32"
					},
					"t_bool": {
						"encoding": "inplace",
						"label": "bool",
						"numberOfBytes": "1"
					},
					"t_uint256": {
						"encoding": "inplace",
						"label": "uint256",
						"numberOfBytes": "32"
					},
					"t_uint8": {
						"encoding": "inplace",
						"label": "uint8",
						"numberOfBytes": "1"
					}
				}
			},
			"userdoc": {
				"kind": "user",
				"methods": {},
				"version": 1
			}
		}
	}
}